{
  "_format": "hh-sol-artifact-1",
  "contractName": "CreatorNFT",
  "sourceName": "contracts/CreatorNFT.sol",
  "abi": [
    {
      "inputs": [
        {
          "internalType": "address",
          "name": "admin",
          "type": "address"
        }
      ],
      "stateMutability": "nonpayable",
      "type": "constructor"
    },
    {
      "inputs": [],
      "name": "AccessControlBadConfirmation",
      "type": "error"
    },
    {
      "inputs": [
        {
          "internalType": "address",
          "name": "account",
          "type": "address"
        },
        {
          "internalType": "bytes32",
          "name": "neededRole",
          "type": "bytes32"
        }
      ],
      "name": "AccessControlUnauthorizedAccount",
      "type": "error"
    },
    {
      "inputs": [
        {
          "internalType": "address",
          "name": "sender",
          "type": "address"
        },
        {
          "internalType": "uint256",
          "name": "tokenId",
          "type": "uint256"
        },
        {
          "internalType": "address",
          "name": "owner",
          "type": "address"
        }
      ],
      "name": "ERC721IncorrectOwner",
      "type": "error"
    },
    {
      "inputs": [
        {
          "internalType": "address",
          "name": "operator",
          "type": "address"
        },
        {
          "internalType": "uint256",
          "name": "tokenId",
          "type": "uint256"
        }
      ],
      "name": "ERC721InsufficientApproval",
      "type": "error"
    },
    {
      "inputs": [
        {
          "internalType": "address",
          "name": "approver",
          "type": "address"
        }
      ],
      "name": "ERC721InvalidApprover",
      "type": "error"
    },
    {
      "inputs": [
        {
          "internalType": "address",
          "name": "operator",
          "type": "address"
        }
      ],
      "name": "ERC721InvalidOperator",
      "type": "error"
    },
    {
      "inputs": [
        {
          "internalType": "address",
          "name": "owner",
          "type": "address"
        }
      ],
      "name": "ERC721InvalidOwner",
      "type": "error"
    },
    {
      "inputs": [
        {
          "internalType": "address",
          "name": "receiver",
          "type": "address"
        }
      ],
      "name": "ERC721InvalidReceiver",
      "type": "error"
    },
    {
      "inputs": [
        {
          "internalType": "address",
          "name": "sender",
          "type": "address"
        }
      ],
      "name": "ERC721InvalidSender",
      "type": "error"
    },
    {
      "inputs": [
        {
          "internalType": "uint256",
          "name": "tokenId",
          "type": "uint256"
        }
      ],
      "name": "ERC721NonexistentToken",
      "type": "error"
    },
    {
      "anonymous": false,
      "inputs": [
        {
          "indexed": true,
          "internalType": "address",
          "name": "owner",
          "type": "address"
        },
        {
          "indexed": true,
          "internalType": "address",
          "name": "approved",
          "type": "address"
        },
        {
          "indexed": true,
          "internalType": "uint256",
          "name": "tokenId",
          "type": "uint256"
        }
      ],
      "name": "Approval",
      "type": "event"
    },
    {
      "anonymous": false,
      "inputs": [
        {
          "indexed": true,
          "internalType": "address",
          "name": "owner",
          "type": "address"
        },
        {
          "indexed": true,
          "internalType": "address",
          "name": "operator",
          "type": "address"
        },
        {
          "indexed": false,
          "internalType": "bool",
          "name": "approved",
          "type": "bool"
        }
      ],
      "name": "ApprovalForAll",
      "type": "event"
    },
    {
      "anonymous": false,
      "inputs": [
        {
          "indexed": true,
          "internalType": "address",
          "name": "creator",
          "type": "address"
        },
        {
          "indexed": true,
          "internalType": "uint256",
          "name": "tokenId",
          "type": "uint256"
        },
        {
          "indexed": false,
          "internalType": "string",
          "name": "username",
          "type": "string"
        }
      ],
      "name": "CreatorMinted",
      "type": "event"
    },
    {
      "anonymous": false,
      "inputs": [
        {
          "indexed": true,
          "internalType": "bytes32",
          "name": "role",
          "type": "bytes32"
        },
        {
          "indexed": true,
          "internalType": "bytes32",
          "name": "previousAdminRole",
          "type": "bytes32"
        },
        {
          "indexed": true,
          "internalType": "bytes32",
          "name": "newAdminRole",
          "type": "bytes32"
        }
      ],
      "name": "RoleAdminChanged",
      "type": "event"
    },
    {
      "anonymous": false,
      "inputs": [
        {
          "indexed": true,
          "internalType": "bytes32",
          "name": "role",
          "type": "bytes32"
        },
        {
          "indexed": true,
          "internalType": "address",
          "name": "account",
          "type": "address"
        },
        {
          "indexed": true,
          "internalType": "address",
          "name": "sender",
          "type": "address"
        }
      ],
      "name": "RoleGranted",
      "type": "event"
    },
    {
      "anonymous": false,
      "inputs": [
        {
          "indexed": true,
          "internalType": "bytes32",
          "name": "role",
          "type": "bytes32"
        },
        {
          "indexed": true,
          "internalType": "address",
          "name": "account",
          "type": "address"
        },
        {
          "indexed": true,
          "internalType": "address",
          "name": "sender",
          "type": "address"
        }
      ],
      "name": "RoleRevoked",
      "type": "event"
    },
    {
      "anonymous": false,
      "inputs": [
        {
          "indexed": true,
          "internalType": "address",
          "name": "from",
          "type": "address"
        },
        {
          "indexed": true,
          "internalType": "address",
          "name": "to",
          "type": "address"
        },
        {
          "indexed": true,
          "internalType": "uint256",
          "name": "tokenId",
          "type": "uint256"
        }
      ],
      "name": "Transfer",
      "type": "event"
    },
    {
      "inputs": [],
      "name": "DEFAULT_ADMIN_ROLE",
      "outputs": [
        {
          "internalType": "bytes32",
          "name": "",
          "type": "bytes32"
        }
      ],
      "stateMutability": "view",
      "type": "function"
    },
    {
      "inputs": [],
      "name": "MINTER_ROLE",
      "outputs": [
        {
          "internalType": "bytes32",
          "name": "",
          "type": "bytes32"
        }
      ],
      "stateMutability": "view",
      "type": "function"
    },
    {
      "inputs": [
        {
          "internalType": "address",
          "name": "to",
          "type": "address"
        },
        {
          "internalType": "uint256",
          "name": "tokenId",
          "type": "uint256"
        }
      ],
      "name": "approve",
      "outputs": [],
      "stateMutability": "nonpayable",
      "type": "function"
    },
    {
      "inputs": [
        {
          "internalType": "address",
          "name": "owner",
          "type": "address"
        }
      ],
      "name": "balanceOf",
      "outputs": [
        {
          "internalType": "uint256",
          "name": "",
          "type": "uint256"
        }
      ],
      "stateMutability": "view",
      "type": "function"
    },
    {
      "inputs": [
        {
          "internalType": "uint256",
          "name": "tokenId",
          "type": "uint256"
        }
      ],
      "name": "getApproved",
      "outputs": [
        {
          "internalType": "address",
          "name": "",
          "type": "address"
        }
      ],
      "stateMutability": "view",
      "type": "function"
    },
    {
      "inputs": [
        {
          "internalType": "address",
          "name": "wallet",
          "type": "address"
        }
      ],
      "name": "getProfile",
      "outputs": [
        {
          "components": [
            {
              "internalType": "string",
              "name": "username",
              "type": "string"
            },
            {
              "internalType": "string",
              "name": "avatarColor",
              "type": "string"
            },
            {
              "internalType": "address",
              "name": "wallet",
              "type": "address"
            },
            {
              "internalType": "uint256",
              "name": "mintedAt",
              "type": "uint256"
            }
          ],
          "internalType": "struct CreatorNFT.CreatorProfile",
          "name": "",
          "type": "tuple"
        }
      ],
      "stateMutability": "view",
      "type": "function"
    },
    {
      "inputs": [
        {
          "internalType": "bytes32",
          "name": "role",
          "type": "bytes32"
        }
      ],
      "name": "getRoleAdmin",
      "outputs": [
        {
          "internalType": "bytes32",
          "name": "",
          "type": "bytes32"
        }
      ],
      "stateMutability": "view",
      "type": "function"
    },
    {
      "inputs": [
        {
          "internalType": "bytes32",
          "name": "role",
          "type": "bytes32"
        },
        {
          "internalType": "address",
          "name": "account",
          "type": "address"
        }
      ],
      "name": "grantRole",
      "outputs": [],
      "stateMutability": "nonpayable",
      "type": "function"
    },
    {
      "inputs": [
        {
          "internalType": "bytes32",
          "name": "role",
          "type": "bytes32"
        },
        {
          "internalType": "address",
          "name": "account",
          "type": "address"
        }
      ],
      "name": "hasRole",
      "outputs": [
        {
          "internalType": "bool",
          "name": "",
          "type": "bool"
        }
      ],
      "stateMutability": "view",
      "type": "function"
    },
    {
      "inputs": [
        {
          "internalType": "address",
          "name": "owner",
          "type": "address"
        },
        {
          "internalType": "address",
          "name": "operator",
          "type": "address"
        }
      ],
      "name": "isApprovedForAll",
      "outputs": [
        {
          "internalType": "bool",
          "name": "",
          "type": "bool"
        }
      ],
      "stateMutability": "view",
      "type": "function"
    },
    {
      "inputs": [
        {
          "internalType": "string",
          "name": "username",
          "type": "string"
        }
      ],
      "name": "isUsernameAvailable",
      "outputs": [
        {
          "internalType": "bool",
          "name": "",
          "type": "bool"
        }
      ],
      "stateMutability": "view",
      "type": "function"
    },
    {
      "inputs": [
        {
          "internalType": "string",
          "name": "username",
          "type": "string"
        },
        {
          "internalType": "string",
          "name": "avatarColor",
          "type": "string"
        }
      ],
      "name": "mintCreatorNFT",
      "outputs": [],
      "stateMutability": "nonpayable",
      "type": "function"
    },
    {
      "inputs": [],
      "name": "name",
      "outputs": [
        {
          "internalType": "string",
          "name": "",
          "type": "string"
        }
      ],
      "stateMutability": "view",
      "type": "function"
    },
    {
      "inputs": [
        {
          "internalType": "uint256",
          "name": "tokenId",
          "type": "uint256"
        }
      ],
      "name": "ownerOf",
      "outputs": [
        {
          "internalType": "address",
          "name": "",
          "type": "address"
        }
      ],
      "stateMutability": "view",
      "type": "function"
    },
    {
      "inputs": [
        {
          "internalType": "uint256",
          "name": "",
          "type": "uint256"
        }
      ],
      "name": "profiles",
      "outputs": [
        {
          "internalType": "string",
          "name": "username",
          "type": "string"
        },
        {
          "internalType": "string",
          "name": "avatarColor",
          "type": "string"
        },
        {
          "internalType": "address",
          "name": "wallet",
          "type": "address"
        },
        {
          "internalType": "uint256",
          "name": "mintedAt",
          "type": "uint256"
        }
      ],
      "stateMutability": "view",
      "type": "function"
    },
    {
      "inputs": [
        {
          "internalType": "bytes32",
          "name": "role",
          "type": "bytes32"
        },
        {
          "internalType": "address",
          "name": "callerConfirmation",
          "type": "address"
        }
      ],
      "name": "renounceRole",
      "outputs": [],
      "stateMutability": "nonpayable",
      "type": "function"
    },
    {
      "inputs": [
        {
          "internalType": "bytes32",
          "name": "role",
          "type": "bytes32"
        },
        {
          "internalType": "address",
          "name": "account",
          "type": "address"
        }
      ],
      "name": "revokeRole",
      "outputs": [],
      "stateMutability": "nonpayable",
      "type": "function"
    },
    {
      "inputs": [
        {
          "internalType": "address",
          "name": "from",
          "type": "address"
        },
        {
          "internalType": "address",
          "name": "to",
          "type": "address"
        },
        {
          "internalType": "uint256",
          "name": "tokenId",
          "type": "uint256"
        }
      ],
      "name": "safeTransferFrom",
      "outputs": [],
      "stateMutability": "nonpayable",
      "type": "function"
    },
    {
      "inputs": [
        {
          "internalType": "address",
          "name": "from",
          "type": "address"
        },
        {
          "internalType": "address",
          "name": "to",
          "type": "address"
        },
        {
          "internalType": "uint256",
          "name": "tokenId",
          "type": "uint256"
        },
        {
          "internalType": "bytes",
          "name": "data",
          "type": "bytes"
        }
      ],
      "name": "safeTransferFrom",
      "outputs": [],
      "stateMutability": "nonpayable",
      "type": "function"
    },
    {
      "inputs": [
        {
          "internalType": "address",
          "name": "operator",
          "type": "address"
        },
        {
          "internalType": "bool",
          "name": "approved",
          "type": "bool"
        }
      ],
      "name": "setApprovalForAll",
      "outputs": [],
      "stateMutability": "nonpayable",
      "type": "function"
    },
    {
      "inputs": [
        {
          "internalType": "bytes4",
          "name": "interfaceId",
          "type": "bytes4"
        }
      ],
      "name": "supportsInterface",
      "outputs": [
        {
          "internalType": "bool",
          "name": "",
          "type": "bool"
        }
      ],
      "stateMutability": "view",
      "type": "function"
    },
    {
      "inputs": [],
      "name": "symbol",
      "outputs": [
        {
          "internalType": "string",
          "name": "",
          "type": "string"
        }
      ],
      "stateMutability": "view",
      "type": "function"
    },
    {
      "inputs": [
        {
          "internalType": "uint256",
          "name": "tokenId",
          "type": "uint256"
        }
      ],
      "name": "tokenURI",
      "outputs": [
        {
          "internalType": "string",
          "name": "",
          "type": "string"
        }
      ],
      "stateMutability": "view",
      "type": "function"
    },
    {
      "inputs": [
        {
          "internalType": "address",
          "name": "from",
          "type": "address"
        },
        {
          "internalType": "address",
          "name": "to",
          "type": "address"
        },
        {
          "internalType": "uint256",
          "name": "tokenId",
          "type": "uint256"
        }
      ],
      "name": "transferFrom",
      "outputs": [],
      "stateMutability": "nonpayable",
      "type": "function"
    },
    {
      "inputs": [
        {
          "internalType": "string",
          "name": "",
          "type": "string"
        }
      ],
      "name": "usernameTaken",
      "outputs": [
        {
          "internalType": "bool",
          "name": "",
          "type": "bool"
        }
      ],
      "stateMutability": "view",
      "type": "function"
    },
    {
      "inputs": [
        {
          "internalType": "address",
          "name": "",
          "type": "address"
        }
      ],
      "name": "walletToToken",
      "outputs": [
        {
          "internalType": "uint256",
          "name": "",
          "type": "uint256"
        }
      ],
      "stateMutability": "view",
      "type": "function"
    }
  ],
  "bytecode": "0x608060405234801561000f575f5ffd5b50604051616155380380616155833981810160405281019061003191906102c7565b6040518060400160405280600f81526020017f417263616465582043726561746f7200000000000000000000000000000000008152506040518060400160405280600481526020017f4152435800000000000000000000000000000000000000000000000000000000815250815f90816100ab919061052f565b5080600190816100bb919061052f565b5050506100d05f5f1b8261010860201b60201c565b506101017f9f2df0fed2c77648de5860a4cc508cd0818c85b8b8a1ab4ceeef8d981c8956a68261010860201b60201c565b50506105fe565b5f61011983836101fe60201b60201c565b6101f457600160065f8581526020019081526020015f205f015f8473ffffffffffffffffffffffffffffffffffffffff1673ffffffffffffffffffffffffffffffffffffffff1681526020019081526020015f205f6101000a81548160ff02191690831515021790555061019161026260201b60201c565b73ffffffffffffffffffffffffffffffffffffffff168273ffffffffffffffffffffffffffffffffffffffff16847f2f8788117e7eff1d82e926ec794901d17c78024a50270940304540a733656f0d60405160405180910390a4600190506101f8565b5f90505b92915050565b5f60065f8481526020019081526020015f205f015f8373ffffffffffffffffffffffffffffffffffffffff1673ffffffffffffffffffffffffffffffffffffffff1681526020019081526020015f205f9054906101000a900460ff16905092915050565b5f33905090565b5f5ffd5b5f73ffffffffffffffffffffffffffffffffffffffff82169050919050565b5f6102968261026d565b9050919050565b6102a68161028c565b81146102b0575f5ffd5b50565b5f815190506102c18161029d565b92915050565b5f602082840312156102dc576102db610269565b5b5f6102e9848285016102b3565b91505092915050565b5f81519050919050565b7f4e487b71000000000000000000000000000000000000000000000000000000005f52604160045260245ffd5b7f4e487b71000000000000000000000000000000000000000000000000000000005f52602260045260245ffd5b5f600282049050600182168061036d57607f821691505b6020821081036103805761037f610329565b5b50919050565b5f819050815f5260205f209050919050565b5f6020601f8301049050919050565b5f82821b905092915050565b5f600883026103e27fffffffffffffffffffffffffffffffffffffffffffffffffffffffffffffffff826103a7565b6103ec86836103a7565b95508019841693508086168417925050509392505050565b5f819050919050565b5f819050919050565b5f61043061042b61042684610404565b61040d565b610404565b9050919050565b5f819050919050565b61044983610416565b61045d61045582610437565b8484546103b3565b825550505050565b5f5f905090565b610474610465565b61047f818484610440565b505050565b5b818110156104a2576104975f8261046c565b600181019050610485565b5050565b601f8211156104e7576104b881610386565b6104c184610398565b810160208510156104d0578190505b6104e46104dc85610398565b830182610484565b50505b505050565b5f82821c905092915050565b5f6105075f19846008026104ec565b1980831691505092915050565b5f61051f83836104f8565b9150826002028217905092915050565b610538826102f2565b67ffffffffffffffff811115610551576105506102fc565b5b61055b8254610356565b6105668282856104a6565b5f60209050601f831160018114610597575f8415610585578287015190505b61058f8582610514565b8655506105f6565b601f1984166105a586610386565b5f5b828110156105cc578489015182556001820191506020850194506020810190506105a7565b868310156105e957848901516105e5601f8916826104f8565b8355505b6001600288020188555050505b505050505050565b615b4a8061060b5f395ff3fe608060405234801561000f575f5ffd5b506004361061018c575f3560e01c806370a08231116100dc578063c36fe3d611610095578063d547741f1161006f578063d547741f146104cb578063e985e9c5146104e7578063f26e818a14610517578063f69c6dec146105475761018c565b8063c36fe3d61461044a578063c87b56dd1461047d578063d5391393146104ad5761018c565b806370a082311461037657806391d14854146103a657806395d89b41146103d6578063a217fddf146103f4578063a22cb46514610412578063b88d4fde1461042e5761018c565b80630f53a470116101495780632f2ff15d116101235780632f2ff15d146102f257806336568abe1461030e57806342842e0e1461032a5780636352211e146103465761018c565b80630f53a4701461027657806323b872dd146102a6578063248a9ca3146102c25761018c565b8063015259fb1461019057806301ffc9a7146101ac57806303a1b24e146101dc57806306fdde031461020c578063081812fc1461022a578063095ea7b31461025a575b5f5ffd5b6101aa60048036038101906101a591906129b8565b610577565b005b6101c660048036038101906101c19190612a83565b6108a3565b6040516101d39190612ac8565b60405180910390f35b6101f660048036038101906101f19190612b3b565b6108b4565b6040516102039190612b7e565b60405180910390f35b6102146108c9565b6040516102219190612bf7565b60405180910390f35b610244600480360381019061023f9190612c41565b610958565b6040516102519190612c7b565b60405180910390f35b610274600480360381019061026f9190612c94565b610973565b005b610290600480360381019061028b9190612b3b565b610989565b60405161029d9190612d9f565b60405180910390f35b6102c060048036038101906102bb9190612dbf565b610bb6565b005b6102dc60048036038101906102d79190612e42565b610cb5565b6040516102e99190612e7c565b60405180910390f35b61030c60048036038101906103079190612e95565b610cd2565b005b61032860048036038101906103239190612e95565b610cf4565b005b610344600480360381019061033f9190612dbf565b610d6f565b005b610360600480360381019061035b9190612c41565b610d8e565b60405161036d9190612c7b565b60405180910390f35b610390600480360381019061038b9190612b3b565b610d9f565b60405161039d9190612b7e565b60405180910390f35b6103c060048036038101906103bb9190612e95565b610e55565b6040516103cd9190612ac8565b60405180910390f35b6103de610eb9565b6040516103eb9190612bf7565b60405180910390f35b6103fc610f49565b6040516104099190612e7c565b60405180910390f35b61042c60048036038101906104279190612efd565b610f4f565b005b61044860048036038101906104439190612fd9565b610f65565b005b610464600480360381019061045f9190612c41565b610f8a565b6040516104749493929190613059565b60405180910390f35b61049760048036038101906104929190612c41565b6110e1565b6040516104a49190612bf7565b60405180910390f35b6104b5611374565b6040516104c29190612e7c565b60405180910390f35b6104e560048036038101906104e09190612e95565b611398565b005b61050160048036038101906104fc91906130aa565b6113ba565b60405161050e9190612ac8565b60405180910390f35b610531600480360381019061052c91906130e8565b611448565b60405161053e9190612ac8565b60405180910390f35b610561600480360381019061055c91906130e8565b61147d565b60405161056e9190612ac8565b60405180910390f35b5f600a5f3373ffffffffffffffffffffffffffffffffffffffff1673ffffffffffffffffffffffffffffffffffffffff1681526020019081526020015f2054146105f6576040517f08c379a00000000000000000000000000000000000000000000000000000000081526004016105ed90613179565b60405180910390fd5b60098260405161060691906131d1565b90815260200160405180910390205f9054906101000a900460ff1615610661576040517f08c379a000000000000000000000000000000000000000000000000000000000815260040161065890613231565b60405180910390fd5b6003825110156106a6576040517f08c379a000000000000000000000000000000000000000000000000000000000815260040161069d90613299565b60405180910390fd5b6014825111156106eb576040517f08c379a00000000000000000000000000000000000000000000000000000000081526004016106e290613301565b60405180910390fd5b60075f8154809291906106fd9061334c565b91905055505f600754905060405180608001604052808481526020018381526020013373ffffffffffffffffffffffffffffffffffffffff1681526020014281525060085f8381526020019081526020015f205f820151815f0190816107639190613590565b5060208201518160010190816107799190613590565b506040820151816002015f6101000a81548173ffffffffffffffffffffffffffffffffffffffff021916908373ffffffffffffffffffffffffffffffffffffffff1602179055506060820151816003015590505060016009846040516107df91906131d1565b90815260200160405180910390205f6101000a81548160ff02191690831515021790555080600a5f3373ffffffffffffffffffffffffffffffffffffffff1673ffffffffffffffffffffffffffffffffffffffff1681526020019081526020015f208190555061084f33826114b1565b803373ffffffffffffffffffffffffffffffffffffffff167fe3dba0c7ab8e5b88065af7b287de8048761af47d2a75c8ad29c04a25b4b5b3a3856040516108969190612bf7565b60405180910390a3505050565b5f6108ad826115a4565b9050919050565b600a602052805f5260405f205f915090505481565b60605f80546108d7906133c0565b80601f0160208091040260200160405190810160405280929190818152602001828054610903906133c0565b801561094e5780601f106109255761010080835404028352916020019161094e565b820191905f5260205f20905b81548152906001019060200180831161093157829003601f168201915b5050505050905090565b5f6109628261161d565b5061096c826116a3565b9050919050565b61098582826109806116dc565b6116e3565b5050565b61099161282f565b5f600a5f8473ffffffffffffffffffffffffffffffffffffffff1673ffffffffffffffffffffffffffffffffffffffff1681526020019081526020015f205490505f8103610a14576040517f08c379a0000000000000000000000000000000000000000000000000000000008152600401610a0b906136a9565b60405180910390fd5b60085f8281526020019081526020015f206040518060800160405290815f82018054610a3f906133c0565b80601f0160208091040260200160405190810160405280929190818152602001828054610a6b906133c0565b8015610ab65780601f10610a8d57610100808354040283529160200191610ab6565b820191905f5260205f20905b815481529060010190602001808311610a9957829003601f168201915b50505050508152602001600182018054610acf906133c0565b80601f0160208091040260200160405190810160405280929190818152602001828054610afb906133c0565b8015610b465780601f10610b1d57610100808354040283529160200191610b46565b820191905f5260205f20905b815481529060010190602001808311610b2957829003601f168201915b50505050508152602001600282015f9054906101000a900473ffffffffffffffffffffffffffffffffffffffff1673ffffffffffffffffffffffffffffffffffffffff1673ffffffffffffffffffffffffffffffffffffffff168152602001600382015481525050915050919050565b5f73ffffffffffffffffffffffffffffffffffffffff168273ffffffffffffffffffffffffffffffffffffffff1603610c26575f6040517f64a0ae92000000000000000000000000000000000000000000000000000000008152600401610c1d9190612c7b565b60405180910390fd5b5f610c398383610c346116dc565b6116f5565b90508373ffffffffffffffffffffffffffffffffffffffff168173ffffffffffffffffffffffffffffffffffffffff1614610caf578382826040517f64283d7b000000000000000000000000000000000000000000000000000000008152600401610ca6939291906136c7565b60405180910390fd5b50505050565b5f60065f8381526020019081526020015f20600101549050919050565b610cdb82610cb5565b610ce481611900565b610cee8383611914565b50505050565b610cfc6116dc565b73ffffffffffffffffffffffffffffffffffffffff168173ffffffffffffffffffffffffffffffffffffffff1614610d60576040517f6697b23200000000000000000000000000000000000000000000000000000000815260040160405180910390fd5b610d6a82826119fe565b505050565b610d8983838360405180602001604052805f815250610f65565b505050565b5f610d988261161d565b9050919050565b5f5f73ffffffffffffffffffffffffffffffffffffffff168273ffffffffffffffffffffffffffffffffffffffff1603610e10575f6040517f89c62b64000000000000000000000000000000000000000000000000000000008152600401610e079190612c7b565b60405180910390fd5b60035f8373ffffffffffffffffffffffffffffffffffffffff1673ffffffffffffffffffffffffffffffffffffffff1681526020019081526020015f20549050919050565b5f60065f8481526020019081526020015f205f015f8373ffffffffffffffffffffffffffffffffffffffff1673ffffffffffffffffffffffffffffffffffffffff1681526020019081526020015f205f9054906101000a900460ff16905092915050565b606060018054610ec8906133c0565b80601f0160208091040260200160405190810160405280929190818152602001828054610ef4906133c0565b8015610f3f5780601f10610f1657610100808354040283529160200191610f3f565b820191905f5260205f20905b815481529060010190602001808311610f2257829003601f168201915b5050505050905090565b5f5f1b81565b610f61610f5a6116dc565b8383611ae8565b5050565b610f70848484610bb6565b610f84610f7b6116dc565b85858585611cc1565b50505050565b6008602052805f5260405f205f91509050805f018054610fa9906133c0565b80601f0160208091040260200160405190810160405280929190818152602001828054610fd5906133c0565b80156110205780601f10610ff757610100808354040283529160200191611020565b820191905f5260205f20905b81548152906001019060200180831161100357829003601f168201915b505050505090806001018054611035906133c0565b80601f0160208091040260200160405190810160405280929190818152602001828054611061906133c0565b80156110ac5780601f10611083576101008083540402835291602001916110ac565b820191905f5260205f20905b81548152906001019060200180831161108f57829003601f168201915b505050505090806002015f9054906101000a900473ffffffffffffffffffffffffffffffffffffffff16908060030154905084565b60605f73ffffffffffffffffffffffffffffffffffffffff1661110383611e6d565b73ffffffffffffffffffffffffffffffffffffffff1603611159576040517f08c379a000000000000000000000000000000000000000000000000000000000815260040161115090613746565b60405180910390fd5b5f60085f8481526020019081526020015f206040518060800160405290815f82018054611185906133c0565b80601f01602080910402602001604051908101604052809291908181526020018280546111b1906133c0565b80156111fc5780601f106111d3576101008083540402835291602001916111fc565b820191905f5260205f20905b8154815290600101906020018083116111df57829003601f168201915b50505050508152602001600182018054611215906133c0565b80601f0160208091040260200160405190810160405280929190818152602001828054611241906133c0565b801561128c5780601f106112635761010080835404028352916020019161128c565b820191905f5260205f20905b81548152906001019060200180831161126f57829003601f168201915b50505050508152602001600282015f9054906101000a900473ffffffffffffffffffffffffffffffffffffffff1673ffffffffffffffffffffffffffffffffffffffff1673ffffffffffffffffffffffffffffffffffffffff16815260200160038201548152505090505f6113018285611ea6565b90505f611348835f015161131484611f2d565b855f015161132189611f40565b6040516020016113349493929190613c30565b604051602081830303815290604052611f2d565b90508060405160200161135b9190613d46565b6040516020818303038152906040529350505050919050565b7f9f2df0fed2c77648de5860a4cc508cd0818c85b8b8a1ab4ceeef8d981c8956a681565b6113a182610cb5565b6113aa81611900565b6113b483836119fe565b50505050565b5f60055f8473ffffffffffffffffffffffffffffffffffffffff1673ffffffffffffffffffffffffffffffffffffffff1681526020019081526020015f205f8373ffffffffffffffffffffffffffffffffffffffff1673ffffffffffffffffffffffffffffffffffffffff1681526020019081526020015f205f9054906101000a900460ff16905092915050565b6009818051602081018201805184825260208301602085012081835280955050505050505f915054906101000a900460ff1681565b5f60098260405161148e91906131d1565b90815260200160405180910390205f9054906101000a900460ff16159050919050565b5f73ffffffffffffffffffffffffffffffffffffffff168273ffffffffffffffffffffffffffffffffffffffff1603611521575f6040517f64a0ae920000000000000000000000000000000000000000000000000000000081526004016115189190612c7b565b60405180910390fd5b5f61152d83835f6116f5565b90505f73ffffffffffffffffffffffffffffffffffffffff168173ffffffffffffffffffffffffffffffffffffffff161461159f575f6040517f73c6ac6e0000000000000000000000000000000000000000000000000000000081526004016115969190612c7b565b60405180910390fd5b505050565b5f7f7965db0b000000000000000000000000000000000000000000000000000000007bffffffffffffffffffffffffffffffffffffffffffffffffffffffff1916827bffffffffffffffffffffffffffffffffffffffffffffffffffffffff1916148061161657506116158261200a565b5b9050919050565b5f5f61162883611e6d565b90505f73ffffffffffffffffffffffffffffffffffffffff168173ffffffffffffffffffffffffffffffffffffffff160361169a57826040517f7e2732890000000000000000000000000000000000000000000000000000000081526004016116919190612b7e565b60405180910390fd5b80915050919050565b5f60045f8381526020019081526020015f205f9054906101000a900473ffffffffffffffffffffffffffffffffffffffff169050919050565b5f33905090565b6116f083838360016120eb565b505050565b5f5f61170084611e6d565b90505f73ffffffffffffffffffffffffffffffffffffffff168373ffffffffffffffffffffffffffffffffffffffff1614611741576117408184866122aa565b5b5f73ffffffffffffffffffffffffffffffffffffffff168173ffffffffffffffffffffffffffffffffffffffff16146117cc576117805f855f5f6120eb565b600160035f8373ffffffffffffffffffffffffffffffffffffffff1673ffffffffffffffffffffffffffffffffffffffff1681526020019081526020015f205f82825403925050819055505b5f73ffffffffffffffffffffffffffffffffffffffff168573ffffffffffffffffffffffffffffffffffffffff161461184b57600160035f8773ffffffffffffffffffffffffffffffffffffffff1673ffffffffffffffffffffffffffffffffffffffff1681526020019081526020015f205f82825401925050819055505b8460025f8681526020019081526020015f205f6101000a81548173ffffffffffffffffffffffffffffffffffffffff021916908373ffffffffffffffffffffffffffffffffffffffff160217905550838573ffffffffffffffffffffffffffffffffffffffff168273ffffffffffffffffffffffffffffffffffffffff167fddf252ad1be2c89b69c2b068fc378daa952ba7f163c4a11628f55a4df523b3ef60405160405180910390a4809150509392505050565b6119118161190c6116dc565b61236d565b50565b5f61191f8383610e55565b6119f457600160065f8581526020019081526020015f205f015f8473ffffffffffffffffffffffffffffffffffffffff1673ffffffffffffffffffffffffffffffffffffffff1681526020019081526020015f205f6101000a81548160ff0219169083151502179055506119916116dc565b73ffffffffffffffffffffffffffffffffffffffff168273ffffffffffffffffffffffffffffffffffffffff16847f2f8788117e7eff1d82e926ec794901d17c78024a50270940304540a733656f0d60405160405180910390a4600190506119f8565b5f90505b92915050565b5f611a098383610e55565b15611ade575f60065f8581526020019081526020015f205f015f8473ffffffffffffffffffffffffffffffffffffffff1673ffffffffffffffffffffffffffffffffffffffff1681526020019081526020015f205f6101000a81548160ff021916908315150217905550611a7b6116dc565b73ffffffffffffffffffffffffffffffffffffffff168273ffffffffffffffffffffffffffffffffffffffff16847ff6391f5c32d9c69d2a47ea670b442974b53935d1edc7fd64eb21e047a839171b60405160405180910390a460019050611ae2565b5f90505b92915050565b5f73ffffffffffffffffffffffffffffffffffffffff168373ffffffffffffffffffffffffffffffffffffffff1603611b58575f6040517fa9fbf51f000000000000000000000000000000000000000000000000000000008152600401611b4f9190612c7b565b60405180910390fd5b5f73ffffffffffffffffffffffffffffffffffffffff168273ffffffffffffffffffffffffffffffffffffffff1603611bc857816040517f5b08ba18000000000000000000000000000000000000000000000000000000008152600401611bbf9190612c7b565b60405180910390fd5b8060055f8573ffffffffffffffffffffffffffffffffffffffff1673ffffffffffffffffffffffffffffffffffffffff1681526020019081526020015f205f8473ffffffffffffffffffffffffffffffffffffffff1673ffffffffffffffffffffffffffffffffffffffff1681526020019081526020015f205f6101000a81548160ff0219169083151502179055508173ffffffffffffffffffffffffffffffffffffffff168373ffffffffffffffffffffffffffffffffffffffff167f17307eab39ab6107e8899845ad3d59bd9653f200f220920489ca2b5937696c3183604051611cb49190612ac8565b60405180910390a3505050565b5f8373ffffffffffffffffffffffffffffffffffffffff163b1115611e66578273ffffffffffffffffffffffffffffffffffffffff1663150b7a02868685856040518563ffffffff1660e01b8152600401611d1f9493929190613db9565b6020604051808303815f875af1925050508015611d5a57506040513d601f19601f82011682018060405250810190611d579190613e17565b60015b611ddb573d805f8114611d88576040519150601f19603f3d011682016040523d82523d5f602084013e611d8d565b606091505b505f815103611dd357836040517f64a0ae92000000000000000000000000000000000000000000000000000000008152600401611dca9190612c7b565b60405180910390fd5b805160208201fd5b63150b7a0260e01b7bffffffffffffffffffffffffffffffffffffffffffffffffffffffff1916817bffffffffffffffffffffffffffffffffffffffffffffffffffffffff191614611e6457836040517f64a0ae92000000000000000000000000000000000000000000000000000000008152600401611e5b9190612c7b565b60405180910390fd5b505b5050505050565b5f60025f8381526020019081526020015f205f9054906101000a900473ffffffffffffffffffffffffffffffffffffffff169050919050565b60605f8360200151845f0151604051602001611ec3929190613ed6565b6040516020818303038152906040529050611edc6123be565b611ee46123e1565b82865f01518760200151611ef788611f40565b611eff612406565b604051602001611f159796959493929190614c57565b60405160208183030381529060405291505092915050565b6060611f39825f61242b565b9050919050565b60605f6001611f4e846125b5565b0190505f8167ffffffffffffffff811115611f6c57611f6b612894565b5b6040519080825280601f01601f191660200182016040528015611f9e5781602001600182028036833780820191505090505b5090505f82602083010190505b600115611fff578080600190039150507f3031323334353637383961626364656600000000000000000000000000000000600a86061a8153600a8581611ff457611ff3614e05565b5b0494505f8503611fab575b819350505050919050565b5f7f80ac58cd000000000000000000000000000000000000000000000000000000007bffffffffffffffffffffffffffffffffffffffffffffffffffffffff1916827bffffffffffffffffffffffffffffffffffffffffffffffffffffffff191614806120d457507f5b5e139f000000000000000000000000000000000000000000000000000000007bffffffffffffffffffffffffffffffffffffffffffffffffffffffff1916827bffffffffffffffffffffffffffffffffffffffffffffffffffffffff1916145b806120e457506120e382612706565b5b9050919050565b808061212357505f73ffffffffffffffffffffffffffffffffffffffff168273ffffffffffffffffffffffffffffffffffffffff1614155b15612255575f6121328461161d565b90505f73ffffffffffffffffffffffffffffffffffffffff168373ffffffffffffffffffffffffffffffffffffffff161415801561219c57508273ffffffffffffffffffffffffffffffffffffffff168173ffffffffffffffffffffffffffffffffffffffff1614155b80156121af57506121ad81846113ba565b155b156121f157826040517fa9fbf51f0000000000000000000000000000000000000000000000000000000081526004016121e89190612c7b565b60405180910390fd5b811561225357838573ffffffffffffffffffffffffffffffffffffffff168273ffffffffffffffffffffffffffffffffffffffff167f8c5be1e5ebec7d5bd14f71427d1e84f3dd0314c0f7b2291e5b200ac8c7c3b92560405160405180910390a45b505b8360045f8581526020019081526020015f205f6101000a81548173ffffffffffffffffffffffffffffffffffffffff021916908373ffffffffffffffffffffffffffffffffffffffff16021790555050505050565b6122b583838361276f565b612368575f73ffffffffffffffffffffffffffffffffffffffff168373ffffffffffffffffffffffffffffffffffffffff160361232957806040517f7e2732890000000000000000000000000000000000000000000000000000000081526004016123209190612b7e565b60405180910390fd5b81816040517f177e802f00000000000000000000000000000000000000000000000000000000815260040161235f929190614e32565b60405180910390fd5b505050565b6123778282610e55565b6123ba5780826040517fe2517d3f0000000000000000000000000000000000000000000000000000000081526004016123b1929190614e59565b60405180910390fd5b5050565b6060604051806101c0016040528061018281526020016159936101829139905090565b60606040516020016123f290615358565b604051602081830303815290604052905090565b606060405160200161241790615882565b604051602081830303815290604052905090565b60605f83510361244b5760405180602001604052805f81525090506125af565b5f8261247c5760036002855161246191906158ee565b61246b9190615921565b60046124779190615951565b6124a3565b600360028551600461248e9190615951565b61249891906158ee565b6124a29190615921565b5b905060405191507f4142434445464748494a4b4c4d4e4f505152535455565758595a616263646566601f5261067083027f6768696a6b6c6d6e6f707172737475767778797a303132333435363738392b2f18603f526020820181810185865187016020810180515f82525b82841015612561576003840193508351603f8160121c16518753600187019650603f81600c1c16518753600187019650603f8160061c16518753600187019650603f81165187536001870196505061250e565b808252886125a05760038a51066001811461258357600281146125965761259e565b603d6001880353603d600288035361259e565b603d60018803535b505b86885284604052505050505050505b92915050565b5f5f5f90507a184f03e93ff9f4daa797ed6e38ed64bf6a1f0100000000000000008310612611577a184f03e93ff9f4daa797ed6e38ed64bf6a1f010000000000000000838161260757612606614e05565b5b0492506040810190505b6d04ee2d6d415b85acef8100000000831061264e576d04ee2d6d415b85acef8100000000838161264457612643614e05565b5b0492506020810190505b662386f26fc10000831061267d57662386f26fc10000838161267357612672614e05565b5b0492506010810190505b6305f5e10083106126a6576305f5e100838161269c5761269b614e05565b5b0492506008810190505b61271083106126cb5761271083816126c1576126c0614e05565b5b0492506004810190505b606483106126ee57606483816126e4576126e3614e05565b5b0492506002810190505b600a83106126fd576001810190505b80915050919050565b5f7f01ffc9a7000000000000000000000000000000000000000000000000000000007bffffffffffffffffffffffffffffffffffffffffffffffffffffffff1916827bffffffffffffffffffffffffffffffffffffffffffffffffffffffff1916149050919050565b5f5f73ffffffffffffffffffffffffffffffffffffffff168373ffffffffffffffffffffffffffffffffffffffff161415801561282657508273ffffffffffffffffffffffffffffffffffffffff168473ffffffffffffffffffffffffffffffffffffffff1614806127e757506127e684846113ba565b5b8061282557508273ffffffffffffffffffffffffffffffffffffffff1661280d836116a3565b73ffffffffffffffffffffffffffffffffffffffff16145b5b90509392505050565b604051806080016040528060608152602001606081526020015f73ffffffffffffffffffffffffffffffffffffffff1681526020015f81525090565b5f604051905090565b5f5ffd5b5f5ffd5b5f5ffd5b5f5ffd5b5f601f19601f8301169050919050565b7f4e487b71000000000000000000000000000000000000000000000000000000005f52604160045260245ffd5b6128ca82612884565b810181811067ffffffffffffffff821117156128e9576128e8612894565b5b80604052505050565b5f6128fb61286b565b905061290782826128c1565b919050565b5f67ffffffffffffffff82111561292657612925612894565b5b61292f82612884565b9050602081019050919050565b828183375f83830152505050565b5f61295c6129578461290c565b6128f2565b90508281526020810184848401111561297857612977612880565b5b61298384828561293c565b509392505050565b5f82601f83011261299f5761299e61287c565b5b81356129af84826020860161294a565b91505092915050565b5f5f604083850312156129ce576129cd612874565b5b5f83013567ffffffffffffffff8111156129eb576129ea612878565b5b6129f78582860161298b565b925050602083013567ffffffffffffffff811115612a1857612a17612878565b5b612a248582860161298b565b9150509250929050565b5f7fffffffff0000000000000000000000000000000000000000000000000000000082169050919050565b612a6281612a2e565b8114612a6c575f5ffd5b50565b5f81359050612a7d81612a59565b92915050565b5f60208284031215612a9857612a97612874565b5b5f612aa584828501612a6f565b91505092915050565b5f8115159050919050565b612ac281612aae565b82525050565b5f602082019050612adb5f830184612ab9565b92915050565b5f73ffffffffffffffffffffffffffffffffffffffff82169050919050565b5f612b0a82612ae1565b9050919050565b612b1a81612b00565b8114612b24575f5ffd5b50565b5f81359050612b3581612b11565b92915050565b5f60208284031215612b5057612b4f612874565b5b5f612b5d84828501612b27565b91505092915050565b5f819050919050565b612b7881612b66565b82525050565b5f602082019050612b915f830184612b6f565b92915050565b5f81519050919050565b5f82825260208201905092915050565b8281835e5f83830152505050565b5f612bc982612b97565b612bd38185612ba1565b9350612be3818560208601612bb1565b612bec81612884565b840191505092915050565b5f6020820190508181035f830152612c0f8184612bbf565b905092915050565b612c2081612b66565b8114612c2a575f5ffd5b50565b5f81359050612c3b81612c17565b92915050565b5f60208284031215612c5657612c55612874565b5b5f612c6384828501612c2d565b91505092915050565b612c7581612b00565b82525050565b5f602082019050612c8e5f830184612c6c565b92915050565b5f5f60408385031215612caa57612ca9612874565b5b5f612cb785828601612b27565b9250506020612cc885828601612c2d565b9150509250929050565b5f82825260208201905092915050565b5f612cec82612b97565b612cf68185612cd2565b9350612d06818560208601612bb1565b612d0f81612884565b840191505092915050565b612d2381612b00565b82525050565b612d3281612b66565b82525050565b5f608083015f8301518482035f860152612d528282612ce2565b91505060208301518482036020860152612d6c8282612ce2565b9150506040830151612d816040860182612d1a565b506060830151612d946060860182612d29565b508091505092915050565b5f6020820190508181035f830152612db78184612d38565b905092915050565b5f5f5f60608486031215612dd657612dd5612874565b5b5f612de386828701612b27565b9350506020612df486828701612b27565b9250506040612e0586828701612c2d565b9150509250925092565b5f819050919050565b612e2181612e0f565b8114612e2b575f5ffd5b50565b5f81359050612e3c81612e18565b92915050565b5f60208284031215612e5757612e56612874565b5b5f612e6484828501612e2e565b91505092915050565b612e7681612e0f565b82525050565b5f602082019050612e8f5f830184612e6d565b92915050565b5f5f60408385031215612eab57612eaa612874565b5b5f612eb885828601612e2e565b9250506020612ec985828601612b27565b9150509250929050565b612edc81612aae565b8114612ee6575f5ffd5b50565b5f81359050612ef781612ed3565b92915050565b5f5f60408385031215612f1357612f12612874565b5b5f612f2085828601612b27565b9250506020612f3185828601612ee9565b9150509250929050565b5f67ffffffffffffffff821115612f5557612f54612894565b5b612f5e82612884565b9050602081019050919050565b5f612f7d612f7884612f3b565b6128f2565b905082815260208101848484011115612f9957612f98612880565b5b612fa484828561293c565b509392505050565b5f82601f830112612fc057612fbf61287c565b5b8135612fd0848260208601612f6b565b91505092915050565b5f5f5f5f60808587031215612ff157612ff0612874565b5b5f612ffe87828801612b27565b945050602061300f87828801612b27565b935050604061302087828801612c2d565b925050606085013567ffffffffffffffff81111561304157613040612878565b5b61304d87828801612fac565b91505092959194509250565b5f6080820190508181035f8301526130718187612bbf565b905081810360208301526130858186612bbf565b90506130946040830185612c6c565b6130a16060830184612b6f565b95945050505050565b5f5f604083850312156130c0576130bf612874565b5b5f6130cd85828601612b27565b92505060206130de85828601612b27565b9150509250929050565b5f602082840312156130fd576130fc612874565b5b5f82013567ffffffffffffffff81111561311a57613119612878565b5b6131268482850161298b565b91505092915050565b7f416c726561647920612063726561746f720000000000000000000000000000005f82015250565b5f613163601183612ba1565b915061316e8261312f565b602082019050919050565b5f6020820190508181035f83015261319081613157565b9050919050565b5f81905092915050565b5f6131ab82612b97565b6131b58185613197565b93506131c5818560208601612bb1565b80840191505092915050565b5f6131dc82846131a1565b915081905092915050565b7f557365726e616d652074616b656e0000000000000000000000000000000000005f82015250565b5f61321b600e83612ba1565b9150613226826131e7565b602082019050919050565b5f6020820190508181035f8301526132488161320f565b9050919050565b7f557365726e616d6520746f6f2073686f727400000000000000000000000000005f82015250565b5f613283601283612ba1565b915061328e8261324f565b602082019050919050565b5f6020820190508181035f8301526132b081613277565b9050919050565b7f557365726e616d6520746f6f206c6f6e670000000000000000000000000000005f82015250565b5f6132eb601183612ba1565b91506132f6826132b7565b602082019050919050565b5f6020820190508181035f830152613318816132df565b9050919050565b7f4e487b71000000000000000000000000000000000000000000000000000000005f52601160045260245ffd5b5f61335682612b66565b91507fffffffffffffffffffffffffffffffffffffffffffffffffffffffffffffffff82036133885761338761331f565b5b600182019050919050565b7f4e487b71000000000000000000000000000000000000000000000000000000005f52602260045260245ffd5b5f60028204905060018216806133d757607f821691505b6020821081036133ea576133e9613393565b5b50919050565b5f819050815f5260205f209050919050565b5f6020601f8301049050919050565b5f82821b905092915050565b5f6008830261344c7fffffffffffffffffffffffffffffffffffffffffffffffffffffffffffffffff82613411565b6134568683613411565b95508019841693508086168417925050509392505050565b5f819050919050565b5f61349161348c61348784612b66565b61346e565b612b66565b9050919050565b5f819050919050565b6134aa83613477565b6134be6134b682613498565b84845461341d565b825550505050565b5f5f905090565b6134d56134c6565b6134e08184846134a1565b505050565b5b81811015613503576134f85f826134cd565b6001810190506134e6565b5050565b601f82111561354857613519816133f0565b61352284613402565b81016020851015613531578190505b61354561353d85613402565b8301826134e5565b50505b505050565b5f82821c905092915050565b5f6135685f198460080261354d565b1980831691505092915050565b5f6135808383613559565b9150826002028217905092915050565b61359982612b97565b67ffffffffffffffff8111156135b2576135b1612894565b5b6135bc82546133c0565b6135c7828285613507565b5f60209050601f8311600181146135f8575f84156135e6578287015190505b6135f08582613575565b865550613657565b601f198416613606866133f0565b5f5b8281101561362d57848901518255600182019150602085019450602081019050613608565b8683101561364a5784890151613646601f891682613559565b8355505b6001600288020188555050505b505050505050565b7f4e6f2063726561746f72204e46540000000000000000000000000000000000005f82015250565b5f613693600e83612ba1565b915061369e8261365f565b602082019050919050565b5f6020820190508181035f8301526136c081613687565b9050919050565b5f6060820190506136da5f830186612c6c565b6136e76020830185612b6f565b6136f46040830184612c6c565b949350505050565b7f546f6b656e20646f6573206e6f742065786973740000000000000000000000005f82015250565b5f613730601483612ba1565b915061373b826136fc565b602082019050919050565b5f6020820190508181035f83015261375d81613724565b9050919050565b7f7b226e616d65223a2200000000000000000000000000000000000000000000005f82015250565b5f613798600983613197565b91506137a382613764565b600982019050919050565b7f2e617263616465222c00000000000000000000000000000000000000000000005f82015250565b5f6137e2600983613197565b91506137ed826137ae565b600982019050919050565b7f226465736372697074696f6e223a22417263616465582043726561746f7220505f8201527f617373202d204f6e2d636861696e206964656e74697479206f6e20424f54436860208201527f61696e222c000000000000000000000000000000000000000000000000000000604082015250565b5f613878604583613197565b9150613883826137f8565b604582019050919050565b7f22696d616765223a22646174613a696d6167652f7376672b786d6c3b626173655f8201527f36342c0000000000000000000000000000000000000000000000000000000000602082015250565b5f6138e8602383613197565b91506138f38261388e565b602382019050919050565b7f222c0000000000000000000000000000000000000000000000000000000000005f82015250565b5f613932600283613197565b915061393d826138fe565b600282019050919050565b7f2261747472696275746573223a5b0000000000000000000000000000000000005f82015250565b5f61397c600e83613197565b915061398782613948565b600e82019050919050565b7f7b2274726169745f74797065223a22557365726e616d65222c2276616c7565225f8201527f3a22000000000000000000000000000000000000000000000000000000000000602082015250565b5f6139ec602283613197565b91506139f782613992565b602282019050919050565b7f227d2c00000000000000000000000000000000000000000000000000000000005f82015250565b5f613a36600383613197565b9150613a4182613a02565b600382019050919050565b7f7b2274726169745f74797065223a22436861696e222c2276616c7565223a22425f8201527f4f54436861696e227d2c00000000000000000000000000000000000000000000602082015250565b5f613aa6602a83613197565b9150613ab182613a4c565b602a82019050919050565b7f7b2274726169745f74797065223a22506c6174666f726d222c2276616c7565225f8201527f3a2241726361646558227d2c0000000000000000000000000000000000000000602082015250565b5f613b16602c83613197565b9150613b2182613abc565b602c82019050919050565b7f7b2274726169745f74797065223a22546f6b656e204944222c2276616c7565225f8201527f3a22000000000000000000000000000000000000000000000000000000000000602082015250565b5f613b86602283613197565b9150613b9182613b2c565b602282019050919050565b7f227d0000000000000000000000000000000000000000000000000000000000005f82015250565b5f613bd0600283613197565b9150613bdb82613b9c565b600282019050919050565b7f5d7d0000000000000000000000000000000000000000000000000000000000005f82015250565b5f613c1a600283613197565b9150613c2582613be6565b600282019050919050565b5f613c3a8261378c565b9150613c4682876131a1565b9150613c51826137d6565b9150613c5c8261386c565b9150613c67826138dc565b9150613c7382866131a1565b9150613c7e82613926565b9150613c8982613970565b9150613c94826139e0565b9150613ca082856131a1565b9150613cab82613a2a565b9150613cb682613a9a565b9150613cc182613b0a565b9150613ccc82613b7a565b9150613cd882846131a1565b9150613ce382613bc4565b9150613cee82613c0e565b915081905095945050505050565b7f646174613a6170706c69636174696f6e2f6a736f6e3b6261736536342c0000005f82015250565b5f613d30601d83613197565b9150613d3b82613cfc565b601d82019050919050565b5f613d5082613d24565b9150613d5c82846131a1565b915081905092915050565b5f81519050919050565b5f82825260208201905092915050565b5f613d8b82613d67565b613d958185613d71565b9350613da5818560208601612bb1565b613dae81612884565b840191505092915050565b5f608082019050613dcc5f830187612c6c565b613dd96020830186612c6c565b613de66040830185612b6f565b8181036060830152613df88184613d81565b905095945050505050565b5f81519050613e1181612a59565b92915050565b5f60208284031215613e2c57613e2b612874565b5b5f613e3984828501613e03565b91505092915050565b7f68747470733a2f2f6170692e64696365626561722e636f6d2f392e782f0000005f82015250565b5f613e76601d83613197565b9150613e8182613e42565b601d82019050919050565b7f2f7376673f736565643d000000000000000000000000000000000000000000005f82015250565b5f613ec0600a83613197565b9150613ecb82613e8c565b600a82019050919050565b5f613ee082613e6a565b9150613eec82856131a1565b9150613ef782613eb4565b9150613f0382846131a1565b91508190509392505050565b7f3c7376672077696474683d2235303022206865696768743d22353030222076695f8201527f6577426f783d2230203020353030203530302220786d6c6e733d22687474703a60208201527f2f2f7777772e77332e6f72672f323030302f7376672220786d6c6e733a786c6960408201527f6e6b3d22687474703a2f2f7777772e77332e6f72672f313939392f786c696e6b60608201527f223e000000000000000000000000000000000000000000000000000000000000608082015250565b5f613fdb608283613197565b9150613fe682613f0f565b608282019050919050565b7f3c646566733e00000000000000000000000000000000000000000000000000005f82015250565b5f614025600683613197565b915061403082613ff1565b600682019050919050565b7f3c6c696e6561724772616469656e742069643d227067222078313d22302522205f8201527f79313d223025222078323d2231303025222079323d223025223e000000000000602082015250565b5f614095603a83613197565b91506140a08261403b565b603a82019050919050565b7f3c73746f70206f66667365743d223025222073746f702d636f6c6f723d2223375f8201527f4232464646222f3e000000000000000000000000000000000000000000000000602082015250565b5f614105602883613197565b9150614110826140ab565b602882019050919050565b7f3c73746f70206f66667365743d2231303025222073746f702d636f6c6f723d225f8201527f23303064346666222f3e00000000000000000000000000000000000000000000602082015250565b5f614175602a83613197565b91506141808261411b565b602a82019050919050565b7f3c2f6c696e6561724772616469656e743e0000000000000000000000000000005f82015250565b5f6141bf601183613197565b91506141ca8261418b565b601182019050919050565b7f3c6c696e6561724772616469656e742069643d226c67222078313d22302522205f8201527f79313d223025222078323d223025222079323d2231303025223e000000000000602082015250565b5f61422f603a83613197565b915061423a826141d5565b603a82019050919050565b7f3c73746f70206f66667365743d223025222073746f702d636f6c6f723d2223305f8201527f3064346666222f3e000000000000000000000000000000000000000000000000602082015250565b5f61429f602883613197565b91506142aa82614245565b602882019050919050565b7f3c73746f70206f66667365743d22353025222073746f702d636f6c6f723d22235f8201527f374232464646222f3e0000000000000000000000000000000000000000000000602082015250565b5f61430f602983613197565b915061431a826142b5565b602982019050919050565b7f3c73746f70206f66667365743d2231303025222073746f702d636f6c6f723d225f8201527f23356131666434222f3e00000000000000000000000000000000000000000000602082015250565b5f61437f602a83613197565b915061438a82614325565b602a82019050919050565b7f3c636c6970506174682069643d22617661746172436c6970223e0000000000005f82015250565b5f6143c9601a83613197565b91506143d482614395565b601a82019050919050565b7f3c636972636c652063783d22323530222063793d223232302220723d223930225f8201527f2f3e000000000000000000000000000000000000000000000000000000000000602082015250565b5f614439602283613197565b9150614444826143df565b602282019050919050565b7f3c2f636c6970506174683e0000000000000000000000000000000000000000005f82015250565b5f614483600b83613197565b915061448e8261444f565b600b82019050919050565b7f3c2f646566733e000000000000000000000000000000000000000000000000005f82015250565b5f6144cd600783613197565b91506144d882614499565b600782019050919050565b7f3c726563742077696474683d2235303022206865696768743d223530302220665f8201527f696c6c3d2223303830373066222f3e0000000000000000000000000000000000602082015250565b5f61453d602f83613197565b9150614548826144e3565b602f82019050919050565b7f3c726563742077696474683d2235303022206865696768743d2235222066696c5f8201527f6c3d2275726c2823706729222f3e000000000000000000000000000000000000602082015250565b5f6145ad602e83613197565b91506145b882614553565b602e82019050919050565b7f3c7265637420793d22343935222077696474683d2235303022206865696768745f8201527f3d2235222066696c6c3d2275726c2823706729222f3e00000000000000000000602082015250565b5f61461d603683613197565b9150614628826145c3565b603682019050919050565b7f3c636972636c652063783d22323530222063793d223232302220723d223932225f8201527f2066696c6c3d222330653063316122207374726f6b653d22233742324646462260208201527f207374726f6b652d77696474683d2232222f3e00000000000000000000000000604082015250565b5f6146b3605383613197565b91506146be82614633565b605382019050919050565b7f3c696d61676520687265663d22000000000000000000000000000000000000005f82015250565b5f6146fd600d83613197565b9150614708826146c9565b600d82019050919050565b7f2220783d223136302220793d22313330222077696474683d22313830222068655f8201527f696768743d223138302220636c69702d706174683d2275726c2823617661746160208201527f72436c697029222f3e0000000000000000000000000000000000000000000000604082015250565b5f614793604983613197565b915061479e82614713565b604982019050919050565b7f3c7465787420783d223235302220793d223334352220666f6e742d66616d696c5f8201527f793d22417269616c20426c61636b2220666f6e742d73697a653d22323422206660208201527f6f6e742d7765696768743d22393030222066696c6c3d2277686974652220746560408201527f78742d616e63686f723d226d6964646c65223e00000000000000000000000000606082015250565b5f61484f607383613197565b915061485a826147a9565b607382019050919050565b7f2e6172636164653c2f746578743e0000000000000000000000000000000000005f82015250565b5f614899600e83613197565b91506148a482614865565b600e82019050919050565b7f3c7265637420783d223137352220793d22333538222077696474683d223135305f8201527f22206865696768743d223234222072783d223132222066696c6c3d222337423260208201527f464646222066696c6c2d6f7061636974793d22302e3222207374726f6b653d2260408201527f2337423246464622207374726f6b652d77696474683d2231222f3e0000000000606082015250565b5f614955607b83613197565b9150614960826148af565b607b82019050919050565b7f3c7465787420783d223235302220793d223337342220666f6e742d66616d696c5f8201527f793d22417269616c2220666f6e742d73697a653d223131222066696c6c3d222360208201527f6136376666662220746578742d616e63686f723d226d6964646c6522206c657460408201527f7465722d73706163696e673d2232223e43524541544f523c2f746578743e0000606082015250565b5f614a11607e83613197565b9150614a1c8261496b565b607e82019050919050565b7f3c7465787420783d223235302220793d223432302220666f6e742d66616d696c5f8201527f793d22417269616c2220666f6e742d73697a653d223130222066696c6c3d222360208201527f3535333361612220746578742d616e63686f723d226d6964646c65223e000000604082015250565b5f614aa7605d83613197565b9150614ab282614a27565b605d82019050919050565b7f207374796c653c2f746578743e000000000000000000000000000000000000005f82015250565b5f614af1600d83613197565b9150614afc82614abd565b600d82019050919050565b7f3c7465787420783d223235302220793d223437302220666f6e742d66616d696c5f8201527f793d226d6f6e6f73706163652220666f6e742d73697a653d223130222066696c60208201527f6c3d22233361326135612220746578742d616e63686f723d226d6964646c652260408201527f3e23000000000000000000000000000000000000000000000000000000000000606082015250565b5f614bad606283613197565b9150614bb882614b07565b606282019050919050565b7f202e20424f54436861696e202e20417263616465583c2f746578743e000000005f82015250565b5f614bf7601c83613197565b9150614c0282614bc3565b601c82019050919050565b7f3c2f7376673e00000000000000000000000000000000000000000000000000005f82015250565b5f614c41600683613197565b9150614c4c82614c0d565b600682019050919050565b5f614c6182613fcf565b9150614c6c82614019565b9150614c7782614089565b9150614c82826140f9565b9150614c8d82614169565b9150614c98826141b3565b9150614ca382614223565b9150614cae82614293565b9150614cb982614303565b9150614cc482614373565b9150614ccf826141b3565b9150614cda826143bd565b9150614ce58261442d565b9150614cf082614477565b9150614cfb826144c1565b9150614d0682614531565b9150614d11826145a1565b9150614d1c82614611565b9150614d28828a6131a1565b9150614d3482896131a1565b9150614d3f826146a7565b9150614d4a826146f1565b9150614d5682886131a1565b9150614d6182614787565b9150614d6c82614843565b9150614d7882876131a1565b9150614d838261488d565b9150614d8e82614949565b9150614d9982614a05565b9150614da482614a9b565b9150614db082866131a1565b9150614dbb82614ae5565b9150614dc682614ba1565b9150614dd282856131a1565b9150614ddd82614beb565b9150614de982846131a1565b9150614df482614c35565b915081905098975050505050505050565b7f4e487b71000000000000000000000000000000000000000000000000000000005f52601260045260245ffd5b5f604082019050614e455f830185612c6c565b614e526020830184612b6f565b9392505050565b5f604082019050614e6c5f830185612c6c565b614e796020830184612e6d565b9392505050565b7f3c7265637420783d2232302220793d223230222077696474683d2234222068655f8201527f696768743d223238222072783d2232222066696c6c3d2223374232464646222f60208201527f3e00000000000000000000000000000000000000000000000000000000000000604082015250565b5f614f00604183613197565b9150614f0b82614e80565b604182019050919050565b7f3c7465787420783d2233322220793d2233342220666f6e742d66616d696c793d5f8201527f22417269616c20426c61636b2220666f6e742d73697a653d2231332220666f6e60208201527f742d7765696768743d22393030222066696c6c3d227768697465223e4152434160408201527f44453c2f746578743e0000000000000000000000000000000000000000000000606082015250565b5f614fbc606983613197565b9150614fc782614f16565b606982019050919050565b7f3c7465787420783d223132302220793d2233342220666f6e742d66616d696c795f8201527f3d22417269616c20426c61636b2220666f6e742d73697a653d2231332220666f60208201527f6e742d7765696768743d22393030222066696c6c3d2223374232464646223e5860408201527f3c2f746578743e00000000000000000000000000000000000000000000000000606082015250565b5f615078606783613197565b915061508382614fd2565b606782019050919050565b7f3c7465787420783d2233322220793d2234362220666f6e742d66616d696c793d5f8201527f22417269616c2220666f6e742d73697a653d2237222066696c6c3d222335353360208201527f33616122206c65747465722d73706163696e673d2232223e47414d494e47205060408201527f4c4154464f524d3c2f746578743e000000000000000000000000000000000000606082015250565b5f615134606e83613197565b915061513f8261508e565b606e82019050919050565b7f3c7465787420783d223336302220793d2233342220666f6e742d66616d696c795f8201527f3d22417269616c2220666f6e742d73697a653d2231312220666f6e742d77656960208201527f6768743d22373030222066696c6c3d227768697465223e424f543c2f7465787460408201527f3e00000000000000000000000000000000000000000000000000000000000000606082015250565b5f6151f0606183613197565b91506151fb8261514a565b606182019050919050565b7f3c7465787420783d223338382220793d2233342220666f6e742d66616d696c795f8201527f3d22417269616c2220666f6e742d73697a653d223131222066696c6c3d22233160208201527f3041333746223e436861696e3c2f746578743e00000000000000000000000000604082015250565b5f615286605383613197565b915061529182615206565b605382019050919050565b7f3c7465787420783d223336302220793d2234362220666f6e742d66616d696c795f8201527f3d22417269616c2220666f6e742d73697a653d2237222066696c6c3d2223306660208201527f3665353622206c65747465722d73706163696e673d2231223e504f574552454460408201527f2042593c2f746578743e00000000000000000000000000000000000000000000606082015250565b5f615342606a83613197565b915061534d8261529c565b606a82019050919050565b5f61536282614ef4565b915061536d82614fb0565b91506153788261506c565b915061538382615128565b915061538e826151e4565b91506153998261527a565b91506153a482615336565b9150819050919050565b7f3c706f6c79676f6e20706f696e74733d223235302c313532203235362c3136365f8201527f203234342c313636222066696c6c3d2275726c28236c6729222f3e0000000000602082015250565b5f615408603b83613197565b9150615413826153ae565b603b82019050919050565b7f3c7061746820643d224d3233342c31363620513232362c313832203233382c315f8201527f3936204c3235302c323034204c3236322c31393620513237342c31383220323660208201527f362c313636205a222066696c6c3d2275726c28236c6729222f3e000000000000604082015250565b5f61549e605a83613197565b91506154a98261541e565b605a82019050919050565b7f3c656c6c697073652063783d22323530222063793d22323430222072783d22385f8201527f222072793d223134222066696c6c3d2275726c28236c6729222f3e0000000000602082015250565b5f61550e603b83613197565b9150615519826154b4565b603b82019050919050565b7f3c7061746820643d224d3233342c32383820513232362c323734203233382c325f8201527f3630204c3235302c323532204c3236322c32363020513237342c32373420323660208201527f362c323838205a222066696c6c3d2275726c28236c6729222f3e000000000000604082015250565b5f6155a4605a83613197565b91506155af82615524565b605a82019050919050565b7f3c706f6c79676f6e20706f696e74733d223235302c333032203235362c3238385f8201527f203234342c323838222066696c6c3d2275726c28236c6729222f3e0000000000602082015250565b5f615614603b83613197565b915061561f826155ba565b603b82019050919050565b7f3c7061746820643d224d3233342c31363620513231302c313736203231342c315f8201527f3838204c3233382c313936222066696c6c3d2275726c28236c672922206f706160208201527f636974793d22302e38222f3e0000000000000000000000000000000000000000604082015250565b5f6156aa604c83613197565b91506156b58261562a565b604c82019050919050565b7f3c7061746820643d224d3236362c31363620513239302c313736203238362c315f8201527f3838204c3236322c313936222066696c6c3d2275726c28236c672922206f706160208201527f636974793d22302e38222f3e0000000000000000000000000000000000000000604082015250565b5f615740604c83613197565b915061574b826156c0565b604c82019050919050565b7f3c7061746820643d224d3233342c32383820513231302c323738203231342c325f8201527f3636204c3233382c323630222066696c6c3d2275726c28236c672922206f706160208201527f636974793d22302e38222f3e0000000000000000000000000000000000000000604082015250565b5f6157d6604c83613197565b91506157e182615756565b604c82019050919050565b7f3c7061746820643d224d3236362c32383820513239302c323738203238362c325f8201527f3636204c3236322c323630222066696c6c3d2275726c28236c672922206f706160208201527f636974793d22302e38222f3e0000000000000000000000000000000000000000604082015250565b5f61586c604c83613197565b9150615877826157ec565b604c82019050919050565b5f61588c826153fc565b915061589782615492565b91506158a282615502565b91506158ad82615598565b91506158b882615608565b91506158c38261569e565b91506158ce82615734565b91506158d9826157ca565b91506158e482615860565b9150819050919050565b5f6158f882612b66565b915061590383612b66565b925082820190508082111561591b5761591a61331f565b5b92915050565b5f61592b82612b66565b915061593683612b66565b92508261594657615945614e05565b5b828204905092915050565b5f61595b82612b66565b915061596683612b66565b925082820261597481612b66565b9150828204841483151761598b5761598a61331f565b5b509291505056fe3c67206f7061636974793d22302e303522207374726f6b653d222337423246464622207374726f6b652d77696474683d22302e35223e3c6c696e652078313d2230222079313d22313030222078323d22353030222079323d22313030222f3e3c6c696e652078313d2230222079313d22323030222078323d22353030222079323d22323030222f3e3c6c696e652078313d2230222079313d22333030222078323d22353030222079323d22333030222f3e3c6c696e652078313d2230222079313d22343030222078323d22353030222079323d22343030222f3e3c6c696e652078313d22313030222079313d2230222078323d22313030222079323d22353030222f3e3c6c696e652078313d22323030222079313d2230222078323d22323030222079323d22353030222f3e3c6c696e652078313d22333030222079313d2230222078323d22333030222079323d22353030222f3e3c6c696e652078313d22343030222079313d2230222078323d22343030222079323d22353030222f3e3c2f673ea2646970667358221220a551929abd01a848f2c52938b3ff9691d4882ec18a0cc6ec72b386f1ef6d2fed64736f6c634300081c0033",
  "linkReferences": {},
  "deployedLinkReferences": {}
}