{
  "_format": "hh-sol-artifact-1",
  "contractName": "ArcadeToken",
  "sourceName": "contracts/ArcadeToken.sol",
  "abi": [
    {
      "inputs": [
        {
          "internalType": "address",
          "name": "admin",
          "type": "address"
        }
      ],
      "stateMutability": "nonpayable",
      "type": "constructor"
    },
    {
      "inputs": [],
      "name": "AccessControlBadConfirmation",
      "type": "error"
    },
    {
      "inputs": [
        {
          "internalType": "address",
          "name": "account",
          "type": "address"
        },
        {
          "internalType": "bytes32",
          "name": "neededRole",
          "type": "bytes32"
        }
      ],
      "name": "AccessControlUnauthorizedAccount",
      "type": "error"
    },
    {
      "inputs": [
        {
          "internalType": "address",
          "name": "spender",
          "type": "address"
        },
        {
          "internalType": "uint256",
          "name": "allowance",
          "type": "uint256"
        },
        {
          "internalType": "uint256",
          "name": "needed",
          "type": "uint256"
        }
      ],
      "name": "ERC20InsufficientAllowance",
      "type": "error"
    },
    {
      "inputs": [
        {
          "internalType": "address",
          "name": "sender",
          "type": "address"
        },
        {
          "internalType": "uint256",
          "name": "balance",
          "type": "uint256"
        },
        {
          "internalType": "uint256",
          "name": "needed",
          "type": "uint256"
        }
      ],
      "name": "ERC20InsufficientBalance",
      "type": "error"
    },
    {
      "inputs": [
        {
          "internalType": "address",
          "name": "approver",
          "type": "address"
        }
      ],
      "name": "ERC20InvalidApprover",
      "type": "error"
    },
    {
      "inputs": [
        {
          "internalType": "address",
          "name": "receiver",
          "type": "address"
        }
      ],
      "name": "ERC20InvalidReceiver",
      "type": "error"
    },
    {
      "inputs": [
        {
          "internalType": "address",
          "name": "sender",
          "type": "address"
        }
      ],
      "name": "ERC20InvalidSender",
      "type": "error"
    },
    {
      "inputs": [
        {
          "internalType": "address",
          "name": "spender",
          "type": "address"
        }
      ],
      "name": "ERC20InvalidSpender",
      "type": "error"
    },
    {
      "anonymous": false,
      "inputs": [
        {
          "indexed": true,
          "internalType": "address",
          "name": "owner",
          "type": "address"
        },
        {
          "indexed": true,
          "internalType": "address",
          "name": "spender",
          "type": "address"
        },
        {
          "indexed": false,
          "internalType": "uint256",
          "name": "value",
          "type": "uint256"
        }
      ],
      "name": "Approval",
      "type": "event"
    },
    {
      "anonymous": false,
      "inputs": [
        {
          "indexed": true,
          "internalType": "address",
          "name": "player",
          "type": "address"
        },
        {
          "indexed": true,
          "internalType": "address",
          "name": "creator",
          "type": "address"
        },
        {
          "indexed": false,
          "internalType": "uint256",
          "name": "playerAmount",
          "type": "uint256"
        },
        {
          "indexed": false,
          "internalType": "uint256",
          "name": "creatorAmount",
          "type": "uint256"
        }
      ],
      "name": "RewardMinted",
      "type": "event"
    },
    {
      "anonymous": false,
      "inputs": [
        {
          "indexed": true,
          "internalType": "bytes32",
          "name": "role",
          "type": "bytes32"
        },
        {
          "indexed": true,
          "internalType": "bytes32",
          "name": "previousAdminRole",
          "type": "bytes32"
        },
        {
          "indexed": true,
          "internalType": "bytes32",
          "name": "newAdminRole",
          "type": "bytes32"
        }
      ],
      "name": "RoleAdminChanged",
      "type": "event"
    },
    {
      "anonymous": false,
      "inputs": [
        {
          "indexed": true,
          "internalType": "bytes32",
          "name": "role",
          "type": "bytes32"
        },
        {
          "indexed": true,
          "internalType": "address",
          "name": "account",
          "type": "address"
        },
        {
          "indexed": true,
          "internalType": "address",
          "name": "sender",
          "type": "address"
        }
      ],
      "name": "RoleGranted",
      "type": "event"
    },
    {
      "anonymous": false,
      "inputs": [
        {
          "indexed": true,
          "internalType": "bytes32",
          "name": "role",
          "type": "bytes32"
        },
        {
          "indexed": true,
          "internalType": "address",
          "name": "account",
          "type": "address"
        },
        {
          "indexed": true,
          "internalType": "address",
          "name": "sender",
          "type": "address"
        }
      ],
      "name": "RoleRevoked",
      "type": "event"
    },
    {
      "anonymous": false,
      "inputs": [
        {
          "indexed": true,
          "internalType": "address",
          "name": "from",
          "type": "address"
        },
        {
          "indexed": true,
          "internalType": "address",
          "name": "to",
          "type": "address"
        },
        {
          "indexed": false,
          "internalType": "uint256",
          "name": "value",
          "type": "uint256"
        }
      ],
      "name": "Transfer",
      "type": "event"
    },
    {
      "inputs": [],
      "name": "DEFAULT_ADMIN_ROLE",
      "outputs": [
        {
          "internalType": "bytes32",
          "name": "",
          "type": "bytes32"
        }
      ],
      "stateMutability": "view",
      "type": "function"
    },
    {
      "inputs": [],
      "name": "MINTER_ROLE",
      "outputs": [
        {
          "internalType": "bytes32",
          "name": "",
          "type": "bytes32"
        }
      ],
      "stateMutability": "view",
      "type": "function"
    },
    {
      "inputs": [],
      "name": "PLATFORM_ROLE",
      "outputs": [
        {
          "internalType": "bytes32",
          "name": "",
          "type": "bytes32"
        }
      ],
      "stateMutability": "view",
      "type": "function"
    },
    {
      "inputs": [
        {
          "internalType": "address",
          "name": "owner",
          "type": "address"
        },
        {
          "internalType": "address",
          "name": "spender",
          "type": "address"
        }
      ],
      "name": "allowance",
      "outputs": [
        {
          "internalType": "uint256",
          "name": "",
          "type": "uint256"
        }
      ],
      "stateMutability": "view",
      "type": "function"
    },
    {
      "inputs": [
        {
          "internalType": "address",
          "name": "spender",
          "type": "address"
        },
        {
          "internalType": "uint256",
          "name": "value",
          "type": "uint256"
        }
      ],
      "name": "approve",
      "outputs": [
        {
          "internalType": "bool",
          "name": "",
          "type": "bool"
        }
      ],
      "stateMutability": "nonpayable",
      "type": "function"
    },
    {
      "inputs": [
        {
          "internalType": "address",
          "name": "player",
          "type": "address"
        },
        {
          "internalType": "address",
          "name": "creator",
          "type": "address"
        }
      ],
      "name": "autoMintReward",
      "outputs": [],
      "stateMutability": "nonpayable",
      "type": "function"
    },
    {
      "inputs": [
        {
          "internalType": "address",
          "name": "account",
          "type": "address"
        }
      ],
      "name": "balanceOf",
      "outputs": [
        {
          "internalType": "uint256",
          "name": "",
          "type": "uint256"
        }
      ],
      "stateMutability": "view",
      "type": "function"
    },
    {
      "inputs": [],
      "name": "decimals",
      "outputs": [
        {
          "internalType": "uint8",
          "name": "",
          "type": "uint8"
        }
      ],
      "stateMutability": "view",
      "type": "function"
    },
    {
      "inputs": [
        {
          "internalType": "address",
          "name": "player",
          "type": "address"
        }
      ],
      "name": "getBalance",
      "outputs": [
        {
          "internalType": "uint256",
          "name": "",
          "type": "uint256"
        }
      ],
      "stateMutability": "view",
      "type": "function"
    },
    {
      "inputs": [
        {
          "internalType": "bytes32",
          "name": "role",
          "type": "bytes32"
        }
      ],
      "name": "getRoleAdmin",
      "outputs": [
        {
          "internalType": "bytes32",
          "name": "",
          "type": "bytes32"
        }
      ],
      "stateMutability": "view",
      "type": "function"
    },
    {
      "inputs": [
        {
          "internalType": "bytes32",
          "name": "role",
          "type": "bytes32"
        },
        {
          "internalType": "address",
          "name": "account",
          "type": "address"
        }
      ],
      "name": "grantRole",
      "outputs": [],
      "stateMutability": "nonpayable",
      "type": "function"
    },
    {
      "inputs": [
        {
          "internalType": "bytes32",
          "name": "role",
          "type": "bytes32"
        },
        {
          "internalType": "address",
          "name": "account",
          "type": "address"
        }
      ],
      "name": "hasRole",
      "outputs": [
        {
          "internalType": "bool",
          "name": "",
          "type": "bool"
        }
      ],
      "stateMutability": "view",
      "type": "function"
    },
    {
      "inputs": [
        {
          "internalType": "address",
          "name": "recipient",
          "type": "address"
        },
        {
          "internalType": "uint256",
          "name": "amount",
          "type": "uint256"
        }
      ],
      "name": "mintTo",
      "outputs": [],
      "stateMutability": "nonpayable",
      "type": "function"
    },
    {
      "inputs": [],
      "name": "name",
      "outputs": [
        {
          "internalType": "string",
          "name": "",
          "type": "string"
        }
      ],
      "stateMutability": "view",
      "type": "function"
    },
    {
      "inputs": [
        {
          "internalType": "bytes32",
          "name": "role",
          "type": "bytes32"
        },
        {
          "internalType": "address",
          "name": "callerConfirmation",
          "type": "address"
        }
      ],
      "name": "renounceRole",
      "outputs": [],
      "stateMutability": "nonpayable",
      "type": "function"
    },
    {
      "inputs": [
        {
          "internalType": "bytes32",
          "name": "role",
          "type": "bytes32"
        },
        {
          "internalType": "address",
          "name": "account",
          "type": "address"
        }
      ],
      "name": "revokeRole",
      "outputs": [],
      "stateMutability": "nonpayable",
      "type": "function"
    },
    {
      "inputs": [],
      "name": "rewardRate",
      "outputs": [
        {
          "internalType": "uint256",
          "name": "",
          "type": "uint256"
        }
      ],
      "stateMutability": "view",
      "type": "function"
    },
    {
      "inputs": [
        {
          "internalType": "uint256",
          "name": "newRate",
          "type": "uint256"
        }
      ],
      "name": "setRewardRate",
      "outputs": [],
      "stateMutability": "nonpayable",
      "type": "function"
    },
    {
      "inputs": [
        {
          "internalType": "bytes4",
          "name": "interfaceId",
          "type": "bytes4"
        }
      ],
      "name": "supportsInterface",
      "outputs": [
        {
          "internalType": "bool",
          "name": "",
          "type": "bool"
        }
      ],
      "stateMutability": "view",
      "type": "function"
    },
    {
      "inputs": [],
      "name": "symbol",
      "outputs": [
        {
          "internalType": "string",
          "name": "",
          "type": "string"
        }
      ],
      "stateMutability": "view",
      "type": "function"
    },
    {
      "inputs": [],
      "name": "totalSupply",
      "outputs": [
        {
          "internalType": "uint256",
          "name": "",
          "type": "uint256"
        }
      ],
      "stateMutability": "view",
      "type": "function"
    },
    {
      "inputs": [
        {
          "internalType": "address",
          "name": "to",
          "type": "address"
        },
        {
          "internalType": "uint256",
          "name": "value",
          "type": "uint256"
        }
      ],
      "name": "transfer",
      "outputs": [
        {
          "internalType": "bool",
          "name": "",
          "type": "bool"
        }
      ],
      "stateMutability": "nonpayable",
      "type": "function"
    },
    {
      "inputs": [
        {
          "internalType": "address",
          "name": "from",
          "type": "address"
        },
        {
          "internalType": "address",
          "name": "to",
          "type": "address"
        },
        {
          "internalType": "uint256",
          "name": "value",
          "type": "uint256"
        }
      ],
      "name": "transferFrom",
      "outputs": [
        {
          "internalType": "bool",
          "name": "",
          "type": "bool"
        }
      ],
      "stateMutability": "nonpayable",
      "type": "function"
    }
  ],
  "bytecode": "0x60806040526802b5e3af16b188000060065534801561001c575f5ffd5b50604051611f98380380611f98833981810160405281019061003e9190610306565b6040518060400160405280600681526020017f41524341444500000000000000000000000000000000000000000000000000008152506040518060400160405280600681526020017f415243414445000000000000000000000000000000000000000000000000000081525081600390816100b9919061056e565b5080600490816100c9919061056e565b5050506100de5f5f1b8261014760201b60201c565b5061010f7f9f2df0fed2c77648de5860a4cc508cd0818c85b8b8a1ab4ceeef8d981c8956a68261014760201b60201c565b506101407f797343f8d6a29aafeb3aaf0910a8973e0081c60c2f6c1f775cd9f76ea348fc1e8261014760201b60201c565b505061063d565b5f610158838361023d60201b60201c565b61023357600160055f8581526020019081526020015f205f015f8473ffffffffffffffffffffffffffffffffffffffff1673ffffffffffffffffffffffffffffffffffffffff1681526020019081526020015f205f6101000a81548160ff0219169083151502179055506101d06102a160201b60201c565b73ffffffffffffffffffffffffffffffffffffffff168273ffffffffffffffffffffffffffffffffffffffff16847f2f8788117e7eff1d82e926ec794901d17c78024a50270940304540a733656f0d60405160405180910390a460019050610237565b5f90505b92915050565b5f60055f8481526020019081526020015f205f015f8373ffffffffffffffffffffffffffffffffffffffff1673ffffffffffffffffffffffffffffffffffffffff1681526020019081526020015f205f9054906101000a900460ff16905092915050565b5f33905090565b5f5ffd5b5f73ffffffffffffffffffffffffffffffffffffffff82169050919050565b5f6102d5826102ac565b9050919050565b6102e5816102cb565b81146102ef575f5ffd5b50565b5f81519050610300816102dc565b92915050565b5f6020828403121561031b5761031a6102a8565b5b5f610328848285016102f2565b91505092915050565b5f81519050919050565b7f4e487b71000000000000000000000000000000000000000000000000000000005f52604160045260245ffd5b7f4e487b71000000000000000000000000000000000000000000000000000000005f52602260045260245ffd5b5f60028204905060018216806103ac57607f821691505b6020821081036103bf576103be610368565b5b50919050565b5f819050815f5260205f209050919050565b5f6020601f8301049050919050565b5f82821b905092915050565b5f600883026104217fffffffffffffffffffffffffffffffffffffffffffffffffffffffffffffffff826103e6565b61042b86836103e6565b95508019841693508086168417925050509392505050565b5f819050919050565b5f819050919050565b5f61046f61046a61046584610443565b61044c565b610443565b9050919050565b5f819050919050565b61048883610455565b61049c61049482610476565b8484546103f2565b825550505050565b5f5f905090565b6104b36104a4565b6104be81848461047f565b505050565b5b818110156104e1576104d65f826104ab565b6001810190506104c4565b5050565b601f821115610526576104f7816103c5565b610500846103d7565b8101602085101561050f578190505b61052361051b856103d7565b8301826104c3565b50505b505050565b5f82821c905092915050565b5f6105465f198460080261052b565b1980831691505092915050565b5f61055e8383610537565b9150826002028217905092915050565b61057782610331565b67ffffffffffffffff8111156105905761058f61033b565b5b61059a8254610395565b6105a58282856104e5565b5f60209050601f8311600181146105d6575f84156105c4578287015190505b6105ce8582610553565b865550610635565b601f1984166105e4866103c5565b5f5b8281101561060b578489015182556001820191506020850194506020810190506105e6565b868310156106285784890151610624601f891682610537565b8355505b6001600288020188555050505b505050505050565b61194e8061064a5f395ff3fe608060405234801561000f575f5ffd5b506004361061014b575f3560e01c806370824c5c116100c1578063a217fddf1161007a578063a217fddf146103af578063a9059cbb146103cd578063d5391393146103fd578063d547741f1461041b578063dd62ed3e14610437578063f8b2cb4f146104675761014b565b806370824c5c146102d957806370a08231146102f75780637b0a47ee1461032757806391d148541461034557806395d89b41146103755780639e447fc6146103935761014b565b8063248a9ca311610113578063248a9ca31461021b5780632f2ff15d1461024b578063313ce5671461026757806336568abe14610285578063449a52f8146102a1578063683fc0d5146102bd5761014b565b806301ffc9a71461014f57806306fdde031461017f578063095ea7b31461019d57806318160ddd146101cd57806323b872dd146101eb575b5f5ffd5b61016960048036038101906101649190611355565b610497565b604051610176919061139a565b60405180910390f35b610187610510565b6040516101949190611423565b60405180910390f35b6101b760048036038101906101b291906114d0565b6105a0565b6040516101c4919061139a565b60405180910390f35b6101d56105c2565b6040516101e2919061151d565b60405180910390f35b61020560048036038101906102009190611536565b6105cb565b604051610212919061139a565b60405180910390f35b610235600480360381019061023091906115b9565b6105f9565b60405161024291906115f3565b60405180910390f35b6102656004803603810190610260919061160c565b610616565b005b61026f610638565b60405161027c9190611665565b60405180910390f35b61029f600480360381019061029a919061160c565b610640565b005b6102bb60048036038101906102b691906114d0565b6106bb565b005b6102d760048036038101906102d2919061167e565b6106f4565b005b6102e16107dc565b6040516102ee91906115f3565b60405180910390f35b610311600480360381019061030c91906116bc565b610800565b60405161031e919061151d565b60405180910390f35b61032f610845565b60405161033c919061151d565b60405180910390f35b61035f600480360381019061035a919061160c565b61084b565b60405161036c919061139a565b60405180910390f35b61037d6108af565b60405161038a9190611423565b60405180910390f35b6103ad60048036038101906103a891906116e7565b61093f565b005b6103b7610956565b6040516103c491906115f3565b60405180910390f35b6103e760048036038101906103e291906114d0565b61095c565b6040516103f4919061139a565b60405180910390f35b61040561097e565b60405161041291906115f3565b60405180910390f35b6104356004803603810190610430919061160c565b6109a2565b005b610451600480360381019061044c919061167e565b6109c4565b60405161045e919061151d565b60405180910390f35b610481600480360381019061047c91906116bc565b610a46565b60405161048e919061151d565b60405180910390f35b5f7f7965db0b000000000000000000000000000000000000000000000000000000007bffffffffffffffffffffffffffffffffffffffffffffffffffffffff1916827bffffffffffffffffffffffffffffffffffffffffffffffffffffffff19161480610509575061050882610a57565b5b9050919050565b60606003805461051f9061173f565b80601f016020809104026020016040519081016040528092919081815260200182805461054b9061173f565b80156105965780601f1061056d57610100808354040283529160200191610596565b820191905f5260205f20905b81548152906001019060200180831161057957829003601f168201915b5050505050905090565b5f5f6105aa610ac0565b90506105b7818585610ac7565b600191505092915050565b5f600254905090565b5f5f6105d5610ac0565b90506105e2858285610ad9565b6105ed858585610b6c565b60019150509392505050565b5f60055f8381526020019081526020015f20600101549050919050565b61061f826105f9565b61062881610c5c565b6106328383610c70565b50505050565b5f6012905090565b610648610ac0565b73ffffffffffffffffffffffffffffffffffffffff168173ffffffffffffffffffffffffffffffffffffffff16146106ac576040517f6697b23200000000000000000000000000000000000000000000000000000000815260040160405180910390fd5b6106b68282610d5a565b505050565b7f797343f8d6a29aafeb3aaf0910a8973e0081c60c2f6c1f775cd9f76ea348fc1e6106e581610c5c565b6106ef8383610e44565b505050565b7f797343f8d6a29aafeb3aaf0910a8973e0081c60c2f6c1f775cd9f76ea348fc1e61071e81610c5c565b5f60646050600654610730919061179c565b61073a919061180a565b90505f6064601460065461074e919061179c565b610758919061180a565b90506107648583610e44565b61076e8482610e44565b8373ffffffffffffffffffffffffffffffffffffffff168573ffffffffffffffffffffffffffffffffffffffff167fcdebb0fb32b2b183456a903e3f30898b70f13f92deac3496b72181cef97b523084846040516107cd92919061183a565b60405180910390a35050505050565b7f797343f8d6a29aafeb3aaf0910a8973e0081c60c2f6c1f775cd9f76ea348fc1e81565b5f5f5f8373ffffffffffffffffffffffffffffffffffffffff1673ffffffffffffffffffffffffffffffffffffffff1681526020019081526020015f20549050919050565b60065481565b5f60055f8481526020019081526020015f205f015f8373ffffffffffffffffffffffffffffffffffffffff1673ffffffffffffffffffffffffffffffffffffffff1681526020019081526020015f205f9054906101000a900460ff16905092915050565b6060600480546108be9061173f565b80601f01602080910402602001604051908101604052809291908181526020018280546108ea9061173f565b80156109355780601f1061090c57610100808354040283529160200191610935565b820191905f5260205f20905b81548152906001019060200180831161091857829003601f168201915b5050505050905090565b5f5f1b61094b81610c5c565b816006819055505050565b5f5f1b81565b5f5f610966610ac0565b9050610973818585610b6c565b600191505092915050565b7f9f2df0fed2c77648de5860a4cc508cd0818c85b8b8a1ab4ceeef8d981c8956a681565b6109ab826105f9565b6109b481610c5c565b6109be8383610d5a565b50505050565b5f60015f8473ffffffffffffffffffffffffffffffffffffffff1673ffffffffffffffffffffffffffffffffffffffff1681526020019081526020015f205f8373ffffffffffffffffffffffffffffffffffffffff1673ffffffffffffffffffffffffffffffffffffffff1681526020019081526020015f2054905092915050565b5f610a5082610800565b9050919050565b5f7f01ffc9a7000000000000000000000000000000000000000000000000000000007bffffffffffffffffffffffffffffffffffffffffffffffffffffffff1916827bffffffffffffffffffffffffffffffffffffffffffffffffffffffff1916149050919050565b5f33905090565b610ad48383836001610ec3565b505050565b5f610ae484846109c4565b90507fffffffffffffffffffffffffffffffffffffffffffffffffffffffffffffffff811015610b665781811015610b57578281836040517ffb8f41b2000000000000000000000000000000000000000000000000000000008152600401610b4e93929190611870565b60405180910390fd5b610b6584848484035f610ec3565b5b50505050565b5f73ffffffffffffffffffffffffffffffffffffffff168373ffffffffffffffffffffffffffffffffffffffff1603610bdc575f6040517f96c6fd1e000000000000000000000000000000000000000000000000000000008152600401610bd391906118a5565b60405180910390fd5b5f73ffffffffffffffffffffffffffffffffffffffff168273ffffffffffffffffffffffffffffffffffffffff1603610c4c575f6040517fec442f05000000000000000000000000000000000000000000000000000000008152600401610c4391906118a5565b60405180910390fd5b610c57838383611092565b505050565b610c6d81610c68610ac0565b6112ab565b50565b5f610c7b838361084b565b610d5057600160055f8581526020019081526020015f205f015f8473ffffffffffffffffffffffffffffffffffffffff1673ffffffffffffffffffffffffffffffffffffffff1681526020019081526020015f205f6101000a81548160ff021916908315150217905550610ced610ac0565b73ffffffffffffffffffffffffffffffffffffffff168273ffffffffffffffffffffffffffffffffffffffff16847f2f8788117e7eff1d82e926ec794901d17c78024a50270940304540a733656f0d60405160405180910390a460019050610d54565b5f90505b92915050565b5f610d65838361084b565b15610e3a575f60055f8581526020019081526020015f205f015f8473ffffffffffffffffffffffffffffffffffffffff1673ffffffffffffffffffffffffffffffffffffffff1681526020019081526020015f205f6101000a81548160ff021916908315150217905550610dd7610ac0565b73ffffffffffffffffffffffffffffffffffffffff168273ffffffffffffffffffffffffffffffffffffffff16847ff6391f5c32d9c69d2a47ea670b442974b53935d1edc7fd64eb21e047a839171b60405160405180910390a460019050610e3e565b5f90505b92915050565b5f73ffffffffffffffffffffffffffffffffffffffff168273ffffffffffffffffffffffffffffffffffffffff1603610eb4575f6040517fec442f05000000000000000000000000000000000000000000000000000000008152600401610eab91906118a5565b60405180910390fd5b610ebf5f8383611092565b5050565b5f73ffffffffffffffffffffffffffffffffffffffff168473ffffffffffffffffffffffffffffffffffffffff1603610f33575f6040517fe602df05000000000000000000000000000000000000000000000000000000008152600401610f2a91906118a5565b60405180910390fd5b5f73ffffffffffffffffffffffffffffffffffffffff168373ffffffffffffffffffffffffffffffffffffffff1603610fa3575f6040517f94280d62000000000000000000000000000000000000000000000000000000008152600401610f9a91906118a5565b60405180910390fd5b8160015f8673ffffffffffffffffffffffffffffffffffffffff1673ffffffffffffffffffffffffffffffffffffffff1681526020019081526020015f205f8573ffffffffffffffffffffffffffffffffffffffff1673ffffffffffffffffffffffffffffffffffffffff1681526020019081526020015f2081905550801561108c578273ffffffffffffffffffffffffffffffffffffffff168473ffffffffffffffffffffffffffffffffffffffff167f8c5be1e5ebec7d5bd14f71427d1e84f3dd0314c0f7b2291e5b200ac8c7c3b92584604051611083919061151d565b60405180910390a35b50505050565b5f73ffffffffffffffffffffffffffffffffffffffff168373ffffffffffffffffffffffffffffffffffffffff16036110e2578060025f8282546110d691906118be565b925050819055506111b0565b5f5f5f8573ffffffffffffffffffffffffffffffffffffffff1673ffffffffffffffffffffffffffffffffffffffff1681526020019081526020015f205490508181101561116b578381836040517fe450d38c00000000000000000000000000000000000000000000000000000000815260040161116293929190611870565b60405180910390fd5b8181035f5f8673ffffffffffffffffffffffffffffffffffffffff1673ffffffffffffffffffffffffffffffffffffffff1681526020019081526020015f2081905550505b5f73ffffffffffffffffffffffffffffffffffffffff168273ffffffffffffffffffffffffffffffffffffffff16036111f7578060025f8282540392505081905550611241565b805f5f8473ffffffffffffffffffffffffffffffffffffffff1673ffffffffffffffffffffffffffffffffffffffff1681526020019081526020015f205f82825401925050819055505b8173ffffffffffffffffffffffffffffffffffffffff168373ffffffffffffffffffffffffffffffffffffffff167fddf252ad1be2c89b69c2b068fc378daa952ba7f163c4a11628f55a4df523b3ef8360405161129e919061151d565b60405180910390a3505050565b6112b5828261084b565b6112f85780826040517fe2517d3f0000000000000000000000000000000000000000000000000000000081526004016112ef9291906118f1565b60405180910390fd5b5050565b5f5ffd5b5f7fffffffff0000000000000000000000000000000000000000000000000000000082169050919050565b61133481611300565b811461133e575f5ffd5b50565b5f8135905061134f8161132b565b92915050565b5f6020828403121561136a576113696112fc565b5b5f61137784828501611341565b91505092915050565b5f8115159050919050565b61139481611380565b82525050565b5f6020820190506113ad5f83018461138b565b92915050565b5f81519050919050565b5f82825260208201905092915050565b8281835e5f83830152505050565b5f601f19601f8301169050919050565b5f6113f5826113b3565b6113ff81856113bd565b935061140f8185602086016113cd565b611418816113db565b840191505092915050565b5f6020820190508181035f83015261143b81846113eb565b905092915050565b5f73ffffffffffffffffffffffffffffffffffffffff82169050919050565b5f61146c82611443565b9050919050565b61147c81611462565b8114611486575f5ffd5b50565b5f8135905061149781611473565b92915050565b5f819050919050565b6114af8161149d565b81146114b9575f5ffd5b50565b5f813590506114ca816114a6565b92915050565b5f5f604083850312156114e6576114e56112fc565b5b5f6114f385828601611489565b9250506020611504858286016114bc565b9150509250929050565b6115178161149d565b82525050565b5f6020820190506115305f83018461150e565b92915050565b5f5f5f6060848603121561154d5761154c6112fc565b5b5f61155a86828701611489565b935050602061156b86828701611489565b925050604061157c868287016114bc565b9150509250925092565b5f819050919050565b61159881611586565b81146115a2575f5ffd5b50565b5f813590506115b38161158f565b92915050565b5f602082840312156115ce576115cd6112fc565b5b5f6115db848285016115a5565b91505092915050565b6115ed81611586565b82525050565b5f6020820190506116065f8301846115e4565b92915050565b5f5f60408385031215611622576116216112fc565b5b5f61162f858286016115a5565b925050602061164085828601611489565b9150509250929050565b5f60ff82169050919050565b61165f8161164a565b82525050565b5f6020820190506116785f830184611656565b92915050565b5f5f60408385031215611694576116936112fc565b5b5f6116a185828601611489565b92505060206116b285828601611489565b9150509250929050565b5f602082840312156116d1576116d06112fc565b5b5f6116de84828501611489565b91505092915050565b5f602082840312156116fc576116fb6112fc565b5b5f611709848285016114bc565b91505092915050565b7f4e487b71000000000000000000000000000000000000000000000000000000005f52602260045260245ffd5b5f600282049050600182168061175657607f821691505b60208210810361176957611768611712565b5b50919050565b7f4e487b71000000000000000000000000000000000000000000000000000000005f52601160045260245ffd5b5f6117a68261149d565b91506117b18361149d565b92508282026117bf8161149d565b915082820484148315176117d6576117d561176f565b5b5092915050565b7f4e487b71000000000000000000000000000000000000000000000000000000005f52601260045260245ffd5b5f6118148261149d565b915061181f8361149d565b92508261182f5761182e6117dd565b5b828204905092915050565b5f60408201905061184d5f83018561150e565b61185a602083018461150e565b9392505050565b61186a81611462565b82525050565b5f6060820190506118835f830186611861565b611890602083018561150e565b61189d604083018461150e565b949350505050565b5f6020820190506118b85f830184611861565b92915050565b5f6118c88261149d565b91506118d38361149d565b92508282019050808211156118eb576118ea61176f565b5b92915050565b5f6040820190506119045f830185611861565b61191160208301846115e4565b939250505056fea2646970667358221220c570f983a0672d9dd9e2c59683ae94008053122627a49864bdd255db263b414464736f6c634300081c0033",
  "linkReferences": {},
  "deployedLinkReferences": {}
}