{
  "_format": "hh-sol-artifact-1",
  "contractName": "Platform",
  "sourceName": "contracts/Platform.sol",
  "abi": [
    {
      "inputs": [
        {
          "internalType": "address",
          "name": "admin",
          "type": "address"
        },
        {
          "internalType": "address",
          "name": "_arcadeToken",
          "type": "address"
        },
        {
          "internalType": "address",
          "name": "_leaderboard",
          "type": "address"
        }
      ],
      "stateMutability": "nonpayable",
      "type": "constructor"
    },
    {
      "inputs": [],
      "name": "AccessControlBadConfirmation",
      "type": "error"
    },
    {
      "inputs": [
        {
          "internalType": "address",
          "name": "account",
          "type": "address"
        },
        {
          "internalType": "bytes32",
          "name": "neededRole",
          "type": "bytes32"
        }
      ],
      "name": "AccessControlUnauthorizedAccount",
      "type": "error"
    },
    {
      "anonymous": false,
      "inputs": [
        {
          "indexed": true,
          "internalType": "uint256",
          "name": "gameId",
          "type": "uint256"
        }
      ],
      "name": "GameApproved",
      "type": "event"
    },
    {
      "anonymous": false,
      "inputs": [
        {
          "indexed": true,
          "internalType": "uint256",
          "name": "gameId",
          "type": "uint256"
        },
        {
          "indexed": true,
          "internalType": "address",
          "name": "creator",
          "type": "address"
        },
        {
          "indexed": false,
          "internalType": "string",
          "name": "name",
          "type": "string"
        }
      ],
      "name": "GameRegistered",
      "type": "event"
    },
    {
      "anonymous": false,
      "inputs": [
        {
          "indexed": true,
          "internalType": "address",
          "name": "player",
          "type": "address"
        },
        {
          "indexed": true,
          "internalType": "uint256",
          "name": "gameId",
          "type": "uint256"
        },
        {
          "indexed": false,
          "internalType": "uint256",
          "name": "playerReward",
          "type": "uint256"
        },
        {
          "indexed": false,
          "internalType": "uint256",
          "name": "creatorReward",
          "type": "uint256"
        }
      ],
      "name": "PlayRecorded",
      "type": "event"
    },
    {
      "anonymous": false,
      "inputs": [
        {
          "indexed": true,
          "internalType": "bytes32",
          "name": "role",
          "type": "bytes32"
        },
        {
          "indexed": true,
          "internalType": "bytes32",
          "name": "previousAdminRole",
          "type": "bytes32"
        },
        {
          "indexed": true,
          "internalType": "bytes32",
          "name": "newAdminRole",
          "type": "bytes32"
        }
      ],
      "name": "RoleAdminChanged",
      "type": "event"
    },
    {
      "anonymous": false,
      "inputs": [
        {
          "indexed": true,
          "internalType": "bytes32",
          "name": "role",
          "type": "bytes32"
        },
        {
          "indexed": true,
          "internalType": "address",
          "name": "account",
          "type": "address"
        },
        {
          "indexed": true,
          "internalType": "address",
          "name": "sender",
          "type": "address"
        }
      ],
      "name": "RoleGranted",
      "type": "event"
    },
    {
      "anonymous": false,
      "inputs": [
        {
          "indexed": true,
          "internalType": "bytes32",
          "name": "role",
          "type": "bytes32"
        },
        {
          "indexed": true,
          "internalType": "address",
          "name": "account",
          "type": "address"
        },
        {
          "indexed": true,
          "internalType": "address",
          "name": "sender",
          "type": "address"
        }
      ],
      "name": "RoleRevoked",
      "type": "event"
    },
    {
      "inputs": [],
      "name": "ADMIN_ROLE",
      "outputs": [
        {
          "internalType": "bytes32",
          "name": "",
          "type": "bytes32"
        }
      ],
      "stateMutability": "view",
      "type": "function"
    },
    {
      "inputs": [],
      "name": "DEFAULT_ADMIN_ROLE",
      "outputs": [
        {
          "internalType": "bytes32",
          "name": "",
          "type": "bytes32"
        }
      ],
      "stateMutability": "view",
      "type": "function"
    },
    {
      "inputs": [
        {
          "internalType": "uint256",
          "name": "specificGameId",
          "type": "uint256"
        },
        {
          "internalType": "address",
          "name": "creator",
          "type": "address"
        },
        {
          "internalType": "string",
          "name": "name",
          "type": "string"
        },
        {
          "internalType": "string",
          "name": "iframeUrl",
          "type": "string"
        },
        {
          "internalType": "uint256",
          "name": "rewardRate",
          "type": "uint256"
        }
      ],
      "name": "adminRegisterAndApprove",
      "outputs": [],
      "stateMutability": "nonpayable",
      "type": "function"
    },
    {
      "inputs": [
        {
          "internalType": "uint256",
          "name": "gameId",
          "type": "uint256"
        }
      ],
      "name": "approveGame",
      "outputs": [],
      "stateMutability": "nonpayable",
      "type": "function"
    },
    {
      "inputs": [],
      "name": "arcadeToken",
      "outputs": [
        {
          "internalType": "contract ArcadeToken",
          "name": "",
          "type": "address"
        }
      ],
      "stateMutability": "view",
      "type": "function"
    },
    {
      "inputs": [
        {
          "internalType": "address",
          "name": "",
          "type": "address"
        }
      ],
      "name": "creators",
      "outputs": [
        {
          "internalType": "address",
          "name": "creator",
          "type": "address"
        },
        {
          "internalType": "uint256",
          "name": "totalEarned",
          "type": "uint256"
        },
        {
          "internalType": "uint256",
          "name": "gamesPublished",
          "type": "uint256"
        },
        {
          "internalType": "bool",
          "name": "isVerified",
          "type": "bool"
        }
      ],
      "stateMutability": "view",
      "type": "function"
    },
    {
      "inputs": [
        {
          "internalType": "uint256",
          "name": "",
          "type": "uint256"
        }
      ],
      "name": "games",
      "outputs": [
        {
          "internalType": "uint256",
          "name": "gameId",
          "type": "uint256"
        },
        {
          "internalType": "string",
          "name": "name",
          "type": "string"
        },
        {
          "internalType": "address",
          "name": "creator",
          "type": "address"
        },
        {
          "internalType": "string",
          "name": "iframeUrl",
          "type": "string"
        },
        {
          "internalType": "uint256",
          "name": "rewardRate",
          "type": "uint256"
        },
        {
          "internalType": "uint256",
          "name": "totalPlays",
          "type": "uint256"
        },
        {
          "internalType": "bool",
          "name": "isActive",
          "type": "bool"
        }
      ],
      "stateMutability": "view",
      "type": "function"
    },
    {
      "inputs": [
        {
          "internalType": "address",
          "name": "creator",
          "type": "address"
        }
      ],
      "name": "getCreatorStats",
      "outputs": [
        {
          "internalType": "uint256",
          "name": "totalEarned",
          "type": "uint256"
        },
        {
          "internalType": "uint256",
          "name": "gamesPublished",
          "type": "uint256"
        },
        {
          "internalType": "bool",
          "name": "isVerified",
          "type": "bool"
        }
      ],
      "stateMutability": "view",
      "type": "function"
    },
    {
      "inputs": [
        {
          "internalType": "uint256",
          "name": "gameId",
          "type": "uint256"
        }
      ],
      "name": "getGame",
      "outputs": [
        {
          "components": [
            {
              "internalType": "uint256",
              "name": "gameId",
              "type": "uint256"
            },
            {
              "internalType": "string",
              "name": "name",
              "type": "string"
            },
            {
              "internalType": "address",
              "name": "creator",
              "type": "address"
            },
            {
              "internalType": "string",
              "name": "iframeUrl",
              "type": "string"
            },
            {
              "internalType": "uint256",
              "name": "rewardRate",
              "type": "uint256"
            },
            {
              "internalType": "uint256",
              "name": "totalPlays",
              "type": "uint256"
            },
            {
              "internalType": "bool",
              "name": "isActive",
              "type": "bool"
            }
          ],
          "internalType": "struct Platform.Game",
          "name": "",
          "type": "tuple"
        }
      ],
      "stateMutability": "view",
      "type": "function"
    },
    {
      "inputs": [
        {
          "internalType": "bytes32",
          "name": "role",
          "type": "bytes32"
        }
      ],
      "name": "getRoleAdmin",
      "outputs": [
        {
          "internalType": "bytes32",
          "name": "",
          "type": "bytes32"
        }
      ],
      "stateMutability": "view",
      "type": "function"
    },
    {
      "inputs": [],
      "name": "getTotalGames",
      "outputs": [
        {
          "internalType": "uint256",
          "name": "",
          "type": "uint256"
        }
      ],
      "stateMutability": "view",
      "type": "function"
    },
    {
      "inputs": [
        {
          "internalType": "bytes32",
          "name": "role",
          "type": "bytes32"
        },
        {
          "internalType": "address",
          "name": "account",
          "type": "address"
        }
      ],
      "name": "grantRole",
      "outputs": [],
      "stateMutability": "nonpayable",
      "type": "function"
    },
    {
      "inputs": [
        {
          "internalType": "bytes32",
          "name": "role",
          "type": "bytes32"
        },
        {
          "internalType": "address",
          "name": "account",
          "type": "address"
        }
      ],
      "name": "hasRole",
      "outputs": [
        {
          "internalType": "bool",
          "name": "",
          "type": "bool"
        }
      ],
      "stateMutability": "view",
      "type": "function"
    },
    {
      "inputs": [
        {
          "internalType": "address",
          "name": "creator",
          "type": "address"
        }
      ],
      "name": "initCreator",
      "outputs": [],
      "stateMutability": "nonpayable",
      "type": "function"
    },
    {
      "inputs": [],
      "name": "leaderboard",
      "outputs": [
        {
          "internalType": "contract Leaderboard",
          "name": "",
          "type": "address"
        }
      ],
      "stateMutability": "view",
      "type": "function"
    },
    {
      "inputs": [],
      "name": "nextGameId",
      "outputs": [
        {
          "internalType": "uint256",
          "name": "",
          "type": "uint256"
        }
      ],
      "stateMutability": "view",
      "type": "function"
    },
    {
      "inputs": [
        {
          "internalType": "uint256",
          "name": "gameId",
          "type": "uint256"
        },
        {
          "internalType": "uint256",
          "name": "score",
          "type": "uint256"
        }
      ],
      "name": "recordPlayAndEarn",
      "outputs": [],
      "stateMutability": "nonpayable",
      "type": "function"
    },
    {
      "inputs": [
        {
          "internalType": "string",
          "name": "name",
          "type": "string"
        },
        {
          "internalType": "string",
          "name": "iframeUrl",
          "type": "string"
        },
        {
          "internalType": "uint256",
          "name": "rewardRate",
          "type": "uint256"
        }
      ],
      "name": "registerGame",
      "outputs": [],
      "stateMutability": "nonpayable",
      "type": "function"
    },
    {
      "inputs": [
        {
          "internalType": "bytes32",
          "name": "role",
          "type": "bytes32"
        },
        {
          "internalType": "address",
          "name": "callerConfirmation",
          "type": "address"
        }
      ],
      "name": "renounceRole",
      "outputs": [],
      "stateMutability": "nonpayable",
      "type": "function"
    },
    {
      "inputs": [
        {
          "internalType": "bytes32",
          "name": "role",
          "type": "bytes32"
        },
        {
          "internalType": "address",
          "name": "account",
          "type": "address"
        }
      ],
      "name": "revokeRole",
      "outputs": [],
      "stateMutability": "nonpayable",
      "type": "function"
    },
    {
      "inputs": [
        {
          "internalType": "bytes4",
          "name": "interfaceId",
          "type": "bytes4"
        }
      ],
      "name": "supportsInterface",
      "outputs": [
        {
          "internalType": "bool",
          "name": "",
          "type": "bool"
        }
      ],
      "stateMutability": "view",
      "type": "function"
    },
    {
      "inputs": [],
      "name": "totalRevenue",
      "outputs": [
        {
          "internalType": "uint256",
          "name": "",
          "type": "uint256"
        }
      ],
      "stateMutability": "view",
      "type": "function"
    }
  ],
  "bytecode": "0x60806040526001600555348015610014575f5ffd5b50604051612e07380380612e07833981810160405281019061003691906102bf565b6100485f5f1b8461010260201b60201c565b506100797fa49807205ce4d355092ef5a8a18f56e8913cf4a201fbe287825b095693c217758461010260201b60201c565b508160015f6101000a81548173ffffffffffffffffffffffffffffffffffffffff021916908373ffffffffffffffffffffffffffffffffffffffff1602179055508060025f6101000a81548173ffffffffffffffffffffffffffffffffffffffff021916908373ffffffffffffffffffffffffffffffffffffffff16021790555050505061030f565b5f61011383836101f760201b60201c565b6101ed5760015f5f8581526020019081526020015f205f015f8473ffffffffffffffffffffffffffffffffffffffff1673ffffffffffffffffffffffffffffffffffffffff1681526020019081526020015f205f6101000a81548160ff02191690831515021790555061018a61025a60201b60201c565b73ffffffffffffffffffffffffffffffffffffffff168273ffffffffffffffffffffffffffffffffffffffff16847f2f8788117e7eff1d82e926ec794901d17c78024a50270940304540a733656f0d60405160405180910390a4600190506101f1565b5f90505b92915050565b5f5f5f8481526020019081526020015f205f015f8373ffffffffffffffffffffffffffffffffffffffff1673ffffffffffffffffffffffffffffffffffffffff1681526020019081526020015f205f9054906101000a900460ff16905092915050565b5f33905090565b5f5ffd5b5f73ffffffffffffffffffffffffffffffffffffffff82169050919050565b5f61028e82610265565b9050919050565b61029e81610284565b81146102a8575f5ffd5b50565b5f815190506102b981610295565b92915050565b5f5f5f606084860312156102d6576102d5610261565b5b5f6102e3868287016102ab565b93505060206102f4868287016102ab565b9250506040610305868287016102ab565b9150509250925092565b612aeb8061031c5f395ff3fe608060405234801561000f575f5ffd5b5060043610610140575f3560e01c806391d14854116100b6578063aac107401161007a578063aac10740146103a1578063b135bbb0146103bd578063bf2d9e0b146103db578063d547741f146103f9578063e533da3214610415578063eb56b7401461043357610140565b806391d14854146102be578063933166e1146102ee5780639f82d47214610321578063a217fddf14610353578063a2f77bcc1461037157610140565b80632f2ff15d116101085780632f2ff15d1461021257806336568abe1461022e5780635bd4349b1461024a57806375b238fc146102685780637dc9d72d14610286578063884b8ea3146102a257610140565b806301ffc9a714610144578063117a5b90146101745780631cf02faf146101aa578063232b262b146101c6578063248a9ca3146101e2575b5f5ffd5b61015e60048036038101906101599190611b86565b610451565b60405161016b9190611bcb565b60405180910390f35b61018e60048036038101906101899190611c17565b6104ca565b6040516101a19796959493929190611d00565b60405180910390f35b6101c460048036038101906101bf9190611ea7565b61063f565b005b6101e060048036038101906101db9190611f2f565b610888565b005b6101fc60048036038101906101f79190611fa0565b610c14565b6040516102099190611fda565b60405180910390f35b61022c6004803603810190610227919061201d565b610c30565b005b6102486004803603810190610243919061201d565b610c52565b005b610252610ccd565b60405161025f919061205b565b60405180910390f35b610270610ce2565b60405161027d9190611fda565b60405180910390f35b6102a0600480360381019061029b9190612074565b610d06565b005b6102bc60048036038101906102b7919061209f565b610ec5565b005b6102d860048036038101906102d3919061201d565b6112c9565b6040516102e59190611bcb565b60405180910390f35b61030860048036038101906103039190612074565b61132c565b604051610318949392919061214e565b60405180910390f35b61033b60048036038101906103369190612074565b611383565b60405161034a93929190612191565b60405180910390f35b61035b611470565b6040516103689190611fda565b60405180910390f35b61038b60048036038101906103869190611c17565b611476565b60405161039891906122db565b60405180910390f35b6103bb60048036038101906103b69190611c17565b61164d565b005b6103c56117b1565b6040516103d2919061205b565b60405180910390f35b6103e36117b7565b6040516103f0919061205b565b60405180910390f35b610413600480360381019061040e919061201d565b6117bd565b005b61041d6117df565b60405161042a9190612356565b60405180910390f35b61043b611804565b604051610448919061238f565b60405180910390f35b5f7f7965db0b000000000000000000000000000000000000000000000000000000007bffffffffffffffffffffffffffffffffffffffffffffffffffffffff1916827bffffffffffffffffffffffffffffffffffffffffffffffffffffffff191614806104c357506104c282611829565b5b9050919050565b6003602052805f5260405f205f91509050805f0154908060010180546104ef906123d5565b80601f016020809104026020016040519081016040528092919081815260200182805461051b906123d5565b80156105665780601f1061053d57610100808354040283529160200191610566565b820191905f5260205f20905b81548152906001019060200180831161054957829003601f168201915b505050505090806002015f9054906101000a900473ffffffffffffffffffffffffffffffffffffffff16908060030180546105a0906123d5565b80601f01602080910402602001604051908101604052809291908181526020018280546105cc906123d5565b80156106175780601f106105ee57610100808354040283529160200191610617565b820191905f5260205f20905b8154815290600101906020018083116105fa57829003601f168201915b505050505090806004015490806005015490806006015f9054906101000a900460ff16905087565b5f73ffffffffffffffffffffffffffffffffffffffff1660045f3373ffffffffffffffffffffffffffffffffffffffff1673ffffffffffffffffffffffffffffffffffffffff1681526020019081526020015f205f015f9054906101000a900473ffffffffffffffffffffffffffffffffffffffff1673ffffffffffffffffffffffffffffffffffffffff160361070b576040517f08c379a00000000000000000000000000000000000000000000000000000000081526004016107029061244f565b60405180910390fd5b6040518060e0016040528060055481526020018481526020013373ffffffffffffffffffffffffffffffffffffffff1681526020018381526020018281526020015f81526020015f151581525060035f60055481526020019081526020015f205f820151815f015560208201518160010190816107889190612604565b506040820151816002015f6101000a81548173ffffffffffffffffffffffffffffffffffffffff021916908373ffffffffffffffffffffffffffffffffffffffff16021790555060608201518160030190816107e49190612604565b506080820151816004015560a0820151816005015560c0820151816006015f6101000a81548160ff0219169083151502179055509050503373ffffffffffffffffffffffffffffffffffffffff166005547f9c6a3616033f01d9592f0c7ff4d8df22fbc144e2701705c6aa3eb6387e03dc4b8560405161086491906126d3565b60405180910390a360055f81548092919061087e90612720565b9190505550505050565b60035f8381526020019081526020015f206006015f9054906101000a900460ff166108e8576040517f08c379a00000000000000000000000000000000000000000000000000000000081526004016108df906127b1565b60405180910390fd5b5f3390505f60035f8581526020019081526020015f206002015f9054906101000a900473ffffffffffffffffffffffffffffffffffffffff1690505f670de0b6b3a764000060035f8781526020019081526020015f206004015461094c91906127cf565b90505f606460508361095e91906127cf565b610968919061283d565b90505f606460148461097a91906127cf565b610984919061283d565b905060015f9054906101000a900473ffffffffffffffffffffffffffffffffffffffff1673ffffffffffffffffffffffffffffffffffffffff1663449a52f886846040518363ffffffff1660e01b81526004016109e292919061286d565b5f604051808303815f87803b1580156109f9575f5ffd5b505af1158015610a0b573d5f5f3e3d5ffd5b5050505060015f9054906101000a900473ffffffffffffffffffffffffffffffffffffffff1673ffffffffffffffffffffffffffffffffffffffff1663449a52f885836040518363ffffffff1660e01b8152600401610a6b92919061286d565b5f604051808303815f87803b158015610a82575f5ffd5b505af1158015610a94573d5f5f3e3d5ffd5b5050505060025f9054906101000a900473ffffffffffffffffffffffffffffffffffffffff1673ffffffffffffffffffffffffffffffffffffffff166349d908fd8689896040518463ffffffff1660e01b8152600401610af693929190612894565b5f604051808303815f87803b158015610b0d575f5ffd5b505af1158015610b1f573d5f5f3e3d5ffd5b5050505060035f8881526020019081526020015f206005015f815480929190610b4790612720565b91905055508060045f8673ffffffffffffffffffffffffffffffffffffffff1673ffffffffffffffffffffffffffffffffffffffff1681526020019081526020015f206001015f828254610b9b91906128c9565b925050819055508260065f828254610bb391906128c9565b92505081905550868573ffffffffffffffffffffffffffffffffffffffff167ff39503129ba19bf173751c70fcadbac7d2d5d8af082e69b1be2de2d385cd1f4a8484604051610c039291906128fc565b60405180910390a350505050505050565b5f5f5f8381526020019081526020015f20600101549050919050565b610c3982610c14565b610c4281611892565b610c4c83836118a6565b50505050565b610c5a61198f565b73ffffffffffffffffffffffffffffffffffffffff168173ffffffffffffffffffffffffffffffffffffffff1614610cbe576040517f6697b23200000000000000000000000000000000000000000000000000000000815260040160405180910390fd5b610cc88282611996565b505050565b5f6001600554610cdd9190612923565b905090565b7fa49807205ce4d355092ef5a8a18f56e8913cf4a201fbe287825b095693c2177581565b5f73ffffffffffffffffffffffffffffffffffffffff1660045f8373ffffffffffffffffffffffffffffffffffffffff1673ffffffffffffffffffffffffffffffffffffffff1681526020019081526020015f205f015f9054906101000a900473ffffffffffffffffffffffffffffffffffffffff1673ffffffffffffffffffffffffffffffffffffffff1614610dd2576040517f08c379a0000000000000000000000000000000000000000000000000000000008152600401610dc9906129a0565b60405180910390fd5b60405180608001604052808273ffffffffffffffffffffffffffffffffffffffff1681526020015f81526020015f81526020015f151581525060045f8373ffffffffffffffffffffffffffffffffffffffff1673ffffffffffffffffffffffffffffffffffffffff1681526020019081526020015f205f820151815f015f6101000a81548173ffffffffffffffffffffffffffffffffffffffff021916908373ffffffffffffffffffffffffffffffffffffffff16021790555060208201518160010155604082015181600201556060820151816003015f6101000a81548160ff02191690831515021790555090505050565b7fa49807205ce4d355092ef5a8a18f56e8913cf4a201fbe287825b095693c21775610eef81611892565b5f60035f8881526020019081526020015f205f015414610f44576040517f08c379a0000000000000000000000000000000000000000000000000000000008152600401610f3b90612a08565b60405180910390fd5b5f73ffffffffffffffffffffffffffffffffffffffff1660045f8773ffffffffffffffffffffffffffffffffffffffff1673ffffffffffffffffffffffffffffffffffffffff1681526020019081526020015f205f015f9054906101000a900473ffffffffffffffffffffffffffffffffffffffff1673ffffffffffffffffffffffffffffffffffffffff16036110c65760405180608001604052808673ffffffffffffffffffffffffffffffffffffffff1681526020015f81526020015f81526020015f151581525060045f8773ffffffffffffffffffffffffffffffffffffffff1673ffffffffffffffffffffffffffffffffffffffff1681526020019081526020015f205f820151815f015f6101000a81548173ffffffffffffffffffffffffffffffffffffffff021916908373ffffffffffffffffffffffffffffffffffffffff16021790555060208201518160010155604082015181600201556060820151816003015f6101000a81548160ff0219169083151502179055509050505b6040518060e001604052808781526020018581526020018673ffffffffffffffffffffffffffffffffffffffff1681526020018481526020018381526020015f81526020016001151581525060035f8881526020019081526020015f205f820151815f015560208201518160010190816111409190612604565b506040820151816002015f6101000a81548173ffffffffffffffffffffffffffffffffffffffff021916908373ffffffffffffffffffffffffffffffffffffffff160217905550606082015181600301908161119c9190612604565b506080820151816004015560a0820151816005015560c0820151816006015f6101000a81548160ff02191690831515021790555090505060045f8673ffffffffffffffffffffffffffffffffffffffff1673ffffffffffffffffffffffffffffffffffffffff1681526020019081526020015f206002015f81548092919061122390612720565b919050555060055486106112455760018661123e91906128c9565b6005819055505b8473ffffffffffffffffffffffffffffffffffffffff16867f9c6a3616033f01d9592f0c7ff4d8df22fbc144e2701705c6aa3eb6387e03dc4b8660405161128c91906126d3565b60405180910390a3857f83b0550cf054c6b9b5e8247fbc99901fd6b1e61830e2d9644620ad79e5bcf1e360405160405180910390a2505050505050565b5f5f5f8481526020019081526020015f205f015f8373ffffffffffffffffffffffffffffffffffffffff1673ffffffffffffffffffffffffffffffffffffffff1681526020019081526020015f205f9054906101000a900460ff16905092915050565b6004602052805f5260405f205f91509050805f015f9054906101000a900473ffffffffffffffffffffffffffffffffffffffff1690806001015490806002015490806003015f9054906101000a900460ff16905084565b5f5f5f5f60045f8673ffffffffffffffffffffffffffffffffffffffff1673ffffffffffffffffffffffffffffffffffffffff1681526020019081526020015f206040518060800160405290815f82015f9054906101000a900473ffffffffffffffffffffffffffffffffffffffff1673ffffffffffffffffffffffffffffffffffffffff1673ffffffffffffffffffffffffffffffffffffffff1681526020016001820154815260200160028201548152602001600382015f9054906101000a900460ff1615151515815250509050806020015181604001518260600151935093509350509193909250565b5f5f1b81565b61147e611ad0565b60035f8381526020019081526020015f206040518060e00160405290815f82015481526020016001820180546114b3906123d5565b80601f01602080910402602001604051908101604052809291908181526020018280546114df906123d5565b801561152a5780601f106115015761010080835404028352916020019161152a565b820191905f5260205f20905b81548152906001019060200180831161150d57829003601f168201915b50505050508152602001600282015f9054906101000a900473ffffffffffffffffffffffffffffffffffffffff1673ffffffffffffffffffffffffffffffffffffffff1673ffffffffffffffffffffffffffffffffffffffff168152602001600382018054611598906123d5565b80601f01602080910402602001604051908101604052809291908181526020018280546115c4906123d5565b801561160f5780601f106115e65761010080835404028352916020019161160f565b820191905f5260205f20905b8154815290600101906020018083116115f257829003601f168201915b505050505081526020016004820154815260200160058201548152602001600682015f9054906101000a900460ff1615151515815250509050919050565b7fa49807205ce4d355092ef5a8a18f56e8913cf4a201fbe287825b095693c2177561167781611892565b5f60035f8481526020019081526020015f205f0154036116cc576040517f08c379a00000000000000000000000000000000000000000000000000000000081526004016116c390612a70565b60405180910390fd5b600160035f8481526020019081526020015f206006015f6101000a81548160ff02191690831515021790555060045f60035f8581526020019081526020015f206002015f9054906101000a900473ffffffffffffffffffffffffffffffffffffffff1673ffffffffffffffffffffffffffffffffffffffff1673ffffffffffffffffffffffffffffffffffffffff1681526020019081526020015f206002015f81548092919061177b90612720565b9190505550817f83b0550cf054c6b9b5e8247fbc99901fd6b1e61830e2d9644620ad79e5bcf1e360405160405180910390a25050565b60055481565b60065481565b6117c682610c14565b6117cf81611892565b6117d98383611996565b50505050565b60015f9054906101000a900473ffffffffffffffffffffffffffffffffffffffff1681565b60025f9054906101000a900473ffffffffffffffffffffffffffffffffffffffff1681565b5f7f01ffc9a7000000000000000000000000000000000000000000000000000000007bffffffffffffffffffffffffffffffffffffffffffffffffffffffff1916827bffffffffffffffffffffffffffffffffffffffffffffffffffffffff1916149050919050565b6118a38161189e61198f565b611a7f565b50565b5f6118b183836112c9565b6119855760015f5f8581526020019081526020015f205f015f8473ffffffffffffffffffffffffffffffffffffffff1673ffffffffffffffffffffffffffffffffffffffff1681526020019081526020015f205f6101000a81548160ff02191690831515021790555061192261198f565b73ffffffffffffffffffffffffffffffffffffffff168273ffffffffffffffffffffffffffffffffffffffff16847f2f8788117e7eff1d82e926ec794901d17c78024a50270940304540a733656f0d60405160405180910390a460019050611989565b5f90505b92915050565b5f33905090565b5f6119a183836112c9565b15611a75575f5f5f8581526020019081526020015f205f015f8473ffffffffffffffffffffffffffffffffffffffff1673ffffffffffffffffffffffffffffffffffffffff1681526020019081526020015f205f6101000a81548160ff021916908315150217905550611a1261198f565b73ffffffffffffffffffffffffffffffffffffffff168273ffffffffffffffffffffffffffffffffffffffff16847ff6391f5c32d9c69d2a47ea670b442974b53935d1edc7fd64eb21e047a839171b60405160405180910390a460019050611a79565b5f90505b92915050565b611a8982826112c9565b611acc5780826040517fe2517d3f000000000000000000000000000000000000000000000000000000008152600401611ac3929190612a8e565b60405180910390fd5b5050565b6040518060e001604052805f8152602001606081526020015f73ffffffffffffffffffffffffffffffffffffffff168152602001606081526020015f81526020015f81526020015f151581525090565b5f604051905090565b5f5ffd5b5f5ffd5b5f7fffffffff0000000000000000000000000000000000000000000000000000000082169050919050565b611b6581611b31565b8114611b6f575f5ffd5b50565b5f81359050611b8081611b5c565b92915050565b5f60208284031215611b9b57611b9a611b29565b5b5f611ba884828501611b72565b91505092915050565b5f8115159050919050565b611bc581611bb1565b82525050565b5f602082019050611bde5f830184611bbc565b92915050565b5f819050919050565b611bf681611be4565b8114611c00575f5ffd5b50565b5f81359050611c1181611bed565b92915050565b5f60208284031215611c2c57611c2b611b29565b5b5f611c3984828501611c03565b91505092915050565b611c4b81611be4565b82525050565b5f81519050919050565b5f82825260208201905092915050565b8281835e5f83830152505050565b5f601f19601f8301169050919050565b5f611c9382611c51565b611c9d8185611c5b565b9350611cad818560208601611c6b565b611cb681611c79565b840191505092915050565b5f73ffffffffffffffffffffffffffffffffffffffff82169050919050565b5f611cea82611cc1565b9050919050565b611cfa81611ce0565b82525050565b5f60e082019050611d135f83018a611c42565b8181036020830152611d258189611c89565b9050611d346040830188611cf1565b8181036060830152611d468187611c89565b9050611d556080830186611c42565b611d6260a0830185611c42565b611d6f60c0830184611bbc565b98975050505050505050565b5f5ffd5b5f5ffd5b7f4e487b71000000000000000000000000000000000000000000000000000000005f52604160045260245ffd5b611db982611c79565b810181811067ffffffffffffffff82111715611dd857611dd7611d83565b5b80604052505050565b5f611dea611b20565b9050611df68282611db0565b919050565b5f67ffffffffffffffff821115611e1557611e14611d83565b5b611e1e82611c79565b9050602081019050919050565b828183375f83830152505050565b5f611e4b611e4684611dfb565b611de1565b905082815260208101848484011115611e6757611e66611d7f565b5b611e72848285611e2b565b509392505050565b5f82601f830112611e8e57611e8d611d7b565b5b8135611e9e848260208601611e39565b91505092915050565b5f5f5f60608486031215611ebe57611ebd611b29565b5b5f84013567ffffffffffffffff811115611edb57611eda611b2d565b5b611ee786828701611e7a565b935050602084013567ffffffffffffffff811115611f0857611f07611b2d565b5b611f1486828701611e7a565b9250506040611f2586828701611c03565b9150509250925092565b5f5f60408385031215611f4557611f44611b29565b5b5f611f5285828601611c03565b9250506020611f6385828601611c03565b9150509250929050565b5f819050919050565b611f7f81611f6d565b8114611f89575f5ffd5b50565b5f81359050611f9a81611f76565b92915050565b5f60208284031215611fb557611fb4611b29565b5b5f611fc284828501611f8c565b91505092915050565b611fd481611f6d565b82525050565b5f602082019050611fed5f830184611fcb565b92915050565b611ffc81611ce0565b8114612006575f5ffd5b50565b5f8135905061201781611ff3565b92915050565b5f5f6040838503121561203357612032611b29565b5b5f61204085828601611f8c565b925050602061205185828601612009565b9150509250929050565b5f60208201905061206e5f830184611c42565b92915050565b5f6020828403121561208957612088611b29565b5b5f61209684828501612009565b91505092915050565b5f5f5f5f5f60a086880312156120b8576120b7611b29565b5b5f6120c588828901611c03565b95505060206120d688828901612009565b945050604086013567ffffffffffffffff8111156120f7576120f6611b2d565b5b61210388828901611e7a565b935050606086013567ffffffffffffffff81111561212457612123611b2d565b5b61213088828901611e7a565b925050608061214188828901611c03565b9150509295509295909350565b5f6080820190506121615f830187611cf1565b61216e6020830186611c42565b61217b6040830185611c42565b6121886060830184611bbc565b95945050505050565b5f6060820190506121a45f830186611c42565b6121b16020830185611c42565b6121be6040830184611bbc565b949350505050565b6121cf81611be4565b82525050565b5f82825260208201905092915050565b5f6121ef82611c51565b6121f981856121d5565b9350612209818560208601611c6b565b61221281611c79565b840191505092915050565b61222681611ce0565b82525050565b61223581611bb1565b82525050565b5f60e083015f8301516122505f8601826121c6565b506020830151848203602086015261226882826121e5565b915050604083015161227d604086018261221d565b506060830151848203606086015261229582826121e5565b91505060808301516122aa60808601826121c6565b5060a08301516122bd60a08601826121c6565b5060c08301516122d060c086018261222c565b508091505092915050565b5f6020820190508181035f8301526122f3818461223b565b905092915050565b5f819050919050565b5f61231e61231961231484611cc1565b6122fb565b611cc1565b9050919050565b5f61232f82612304565b9050919050565b5f61234082612325565b9050919050565b61235081612336565b82525050565b5f6020820190506123695f830184612347565b92915050565b5f61237982612325565b9050919050565b6123898161236f565b82525050565b5f6020820190506123a25f830184612380565b92915050565b7f4e487b71000000000000000000000000000000000000000000000000000000005f52602260045260245ffd5b5f60028204905060018216806123ec57607f821691505b6020821081036123ff576123fe6123a8565b5b50919050565b7f4e6f7420612063726561746f72000000000000000000000000000000000000005f82015250565b5f612439600d83611c5b565b915061244482612405565b602082019050919050565b5f6020820190508181035f8301526124668161242d565b9050919050565b5f819050815f5260205f209050919050565b5f6020601f8301049050919050565b5f82821b905092915050565b5f600883026124c97fffffffffffffffffffffffffffffffffffffffffffffffffffffffffffffffff8261248e565b6124d3868361248e565b95508019841693508086168417925050509392505050565b5f6125056125006124fb84611be4565b6122fb565b611be4565b9050919050565b5f819050919050565b61251e836124eb565b61253261252a8261250c565b84845461249a565b825550505050565b5f5f905090565b61254961253a565b612554818484612515565b505050565b5b818110156125775761256c5f82612541565b60018101905061255a565b5050565b601f8211156125bc5761258d8161246d565b6125968461247f565b810160208510156125a5578190505b6125b96125b18561247f565b830182612559565b50505b505050565b5f82821c905092915050565b5f6125dc5f19846008026125c1565b1980831691505092915050565b5f6125f483836125cd565b9150826002028217905092915050565b61260d82611c51565b67ffffffffffffffff81111561262657612625611d83565b5b61263082546123d5565b61263b82828561257b565b5f60209050601f83116001811461266c575f841561265a578287015190505b61266485826125e9565b8655506126cb565b601f19841661267a8661246d565b5f5b828110156126a15784890151825560018201915060208501945060208101905061267c565b868310156126be57848901516126ba601f8916826125cd565b8355505b6001600288020188555050505b505050505050565b5f6020820190508181035f8301526126eb8184611c89565b905092915050565b7f4e487b71000000000000000000000000000000000000000000000000000000005f52601160045260245ffd5b5f61272a82611be4565b91507fffffffffffffffffffffffffffffffffffffffffffffffffffffffffffffffff820361275c5761275b6126f3565b5b600182019050919050565b7f47616d65206e6f742061637469766500000000000000000000000000000000005f82015250565b5f61279b600f83611c5b565b91506127a682612767565b602082019050919050565b5f6020820190508181035f8301526127c88161278f565b9050919050565b5f6127d982611be4565b91506127e483611be4565b92508282026127f281611be4565b91508282048414831517612809576128086126f3565b5b5092915050565b7f4e487b71000000000000000000000000000000000000000000000000000000005f52601260045260245ffd5b5f61284782611be4565b915061285283611be4565b92508261286257612861612810565b5b828204905092915050565b5f6040820190506128805f830185611cf1565b61288d6020830184611c42565b9392505050565b5f6060820190506128a75f830186611cf1565b6128b46020830185611c42565b6128c16040830184611c42565b949350505050565b5f6128d382611be4565b91506128de83611be4565b92508282019050808211156128f6576128f56126f3565b5b92915050565b5f60408201905061290f5f830185611c42565b61291c6020830184611c42565b9392505050565b5f61292d82611be4565b915061293883611be4565b92508282039050818111156129505761294f6126f3565b5b92915050565b7f416c7265616479207265676973746572656400000000000000000000000000005f82015250565b5f61298a601283611c5b565b915061299582612956565b602082019050919050565b5f6020820190508181035f8301526129b78161297e565b9050919050565b7f47616d65496420616c72656164792074616b656e0000000000000000000000005f82015250565b5f6129f2601483611c5b565b91506129fd826129be565b602082019050919050565b5f6020820190508181035f830152612a1f816129e6565b9050919050565b7f47616d65206e6f7420666f756e640000000000000000000000000000000000005f82015250565b5f612a5a600e83611c5b565b9150612a6582612a26565b602082019050919050565b5f6020820190508181035f830152612a8781612a4e565b9050919050565b5f604082019050612aa15f830185611cf1565b612aae6020830184611fcb565b939250505056fea2646970667358221220477b1196416e2477c535992a17b966e6652ba1698b2a37c3d99ffb33ce329a9264736f6c634300081c0033",
  "linkReferences": {},
  "deployedLinkReferences": {}
}