{
  "_format": "hh-sol-artifact-1",
  "contractName": "BadgeNFT",
  "sourceName": "contracts/ArcadeMarketplace.sol",
  "abi": [
    {
      "inputs": [
        {
          "internalType": "address",
          "name": "_marketplace",
          "type": "address"
        }
      ],
      "stateMutability": "nonpayable",
      "type": "constructor"
    },
    {
      "inputs": [
        {
          "internalType": "address",
          "name": "sender",
          "type": "address"
        },
        {
          "internalType": "uint256",
          "name": "tokenId",
          "type": "uint256"
        },
        {
          "internalType": "address",
          "name": "owner",
          "type": "address"
        }
      ],
      "name": "ERC721IncorrectOwner",
      "type": "error"
    },
    {
      "inputs": [
        {
          "internalType": "address",
          "name": "operator",
          "type": "address"
        },
        {
          "internalType": "uint256",
          "name": "tokenId",
          "type": "uint256"
        }
      ],
      "name": "ERC721InsufficientApproval",
      "type": "error"
    },
    {
      "inputs": [
        {
          "internalType": "address",
          "name": "approver",
          "type": "address"
        }
      ],
      "name": "ERC721InvalidApprover",
      "type": "error"
    },
    {
      "inputs": [
        {
          "internalType": "address",
          "name": "operator",
          "type": "address"
        }
      ],
      "name": "ERC721InvalidOperator",
      "type": "error"
    },
    {
      "inputs": [
        {
          "internalType": "address",
          "name": "owner",
          "type": "address"
        }
      ],
      "name": "ERC721InvalidOwner",
      "type": "error"
    },
    {
      "inputs": [
        {
          "internalType": "address",
          "name": "receiver",
          "type": "address"
        }
      ],
      "name": "ERC721InvalidReceiver",
      "type": "error"
    },
    {
      "inputs": [
        {
          "internalType": "address",
          "name": "sender",
          "type": "address"
        }
      ],
      "name": "ERC721InvalidSender",
      "type": "error"
    },
    {
      "inputs": [
        {
          "internalType": "uint256",
          "name": "tokenId",
          "type": "uint256"
        }
      ],
      "name": "ERC721NonexistentToken",
      "type": "error"
    },
    {
      "anonymous": false,
      "inputs": [
        {
          "indexed": true,
          "internalType": "address",
          "name": "owner",
          "type": "address"
        },
        {
          "indexed": true,
          "internalType": "address",
          "name": "approved",
          "type": "address"
        },
        {
          "indexed": true,
          "internalType": "uint256",
          "name": "tokenId",
          "type": "uint256"
        }
      ],
      "name": "Approval",
      "type": "event"
    },
    {
      "anonymous": false,
      "inputs": [
        {
          "indexed": true,
          "internalType": "address",
          "name": "owner",
          "type": "address"
        },
        {
          "indexed": true,
          "internalType": "address",
          "name": "operator",
          "type": "address"
        },
        {
          "indexed": false,
          "internalType": "bool",
          "name": "approved",
          "type": "bool"
        }
      ],
      "name": "ApprovalForAll",
      "type": "event"
    },
    {
      "anonymous": false,
      "inputs": [
        {
          "indexed": true,
          "internalType": "address",
          "name": "from",
          "type": "address"
        },
        {
          "indexed": true,
          "internalType": "address",
          "name": "to",
          "type": "address"
        },
        {
          "indexed": true,
          "internalType": "uint256",
          "name": "tokenId",
          "type": "uint256"
        }
      ],
      "name": "Transfer",
      "type": "event"
    },
    {
      "inputs": [
        {
          "internalType": "address",
          "name": "to",
          "type": "address"
        },
        {
          "internalType": "uint256",
          "name": "tokenId",
          "type": "uint256"
        }
      ],
      "name": "approve",
      "outputs": [],
      "stateMutability": "nonpayable",
      "type": "function"
    },
    {
      "inputs": [
        {
          "internalType": "uint256",
          "name": "",
          "type": "uint256"
        }
      ],
      "name": "badges",
      "outputs": [
        {
          "internalType": "uint256",
          "name": "itemId",
          "type": "uint256"
        },
        {
          "internalType": "string",
          "name": "name",
          "type": "string"
        },
        {
          "internalType": "string",
          "name": "imageURI",
          "type": "string"
        },
        {
          "internalType": "address",
          "name": "owner",
          "type": "address"
        },
        {
          "internalType": "uint256",
          "name": "mintedAt",
          "type": "uint256"
        }
      ],
      "stateMutability": "view",
      "type": "function"
    },
    {
      "inputs": [
        {
          "internalType": "address",
          "name": "owner",
          "type": "address"
        }
      ],
      "name": "balanceOf",
      "outputs": [
        {
          "internalType": "uint256",
          "name": "",
          "type": "uint256"
        }
      ],
      "stateMutability": "view",
      "type": "function"
    },
    {
      "inputs": [
        {
          "internalType": "uint256",
          "name": "tokenId",
          "type": "uint256"
        }
      ],
      "name": "getApproved",
      "outputs": [
        {
          "internalType": "address",
          "name": "",
          "type": "address"
        }
      ],
      "stateMutability": "view",
      "type": "function"
    },
    {
      "inputs": [
        {
          "internalType": "address",
          "name": "owner",
          "type": "address"
        },
        {
          "internalType": "address",
          "name": "operator",
          "type": "address"
        }
      ],
      "name": "isApprovedForAll",
      "outputs": [
        {
          "internalType": "bool",
          "name": "",
          "type": "bool"
        }
      ],
      "stateMutability": "view",
      "type": "function"
    },
    {
      "inputs": [],
      "name": "marketplace",
      "outputs": [
        {
          "internalType": "address",
          "name": "",
          "type": "address"
        }
      ],
      "stateMutability": "view",
      "type": "function"
    },
    {
      "inputs": [
        {
          "internalType": "address",
          "name": "to",
          "type": "address"
        },
        {
          "internalType": "uint256",
          "name": "itemId",
          "type": "uint256"
        },
        {
          "internalType": "string",
          "name": "name",
          "type": "string"
        },
        {
          "internalType": "string",
          "name": "imageURI",
          "type": "string"
        }
      ],
      "name": "mintBadge",
      "outputs": [],
      "stateMutability": "nonpayable",
      "type": "function"
    },
    {
      "inputs": [],
      "name": "name",
      "outputs": [
        {
          "internalType": "string",
          "name": "",
          "type": "string"
        }
      ],
      "stateMutability": "view",
      "type": "function"
    },
    {
      "inputs": [
        {
          "internalType": "uint256",
          "name": "tokenId",
          "type": "uint256"
        }
      ],
      "name": "ownerOf",
      "outputs": [
        {
          "internalType": "address",
          "name": "",
          "type": "address"
        }
      ],
      "stateMutability": "view",
      "type": "function"
    },
    {
      "inputs": [
        {
          "internalType": "address",
          "name": "from",
          "type": "address"
        },
        {
          "internalType": "address",
          "name": "to",
          "type": "address"
        },
        {
          "internalType": "uint256",
          "name": "tokenId",
          "type": "uint256"
        }
      ],
      "name": "safeTransferFrom",
      "outputs": [],
      "stateMutability": "nonpayable",
      "type": "function"
    },
    {
      "inputs": [
        {
          "internalType": "address",
          "name": "from",
          "type": "address"
        },
        {
          "internalType": "address",
          "name": "to",
          "type": "address"
        },
        {
          "internalType": "uint256",
          "name": "tokenId",
          "type": "uint256"
        },
        {
          "internalType": "bytes",
          "name": "data",
          "type": "bytes"
        }
      ],
      "name": "safeTransferFrom",
      "outputs": [],
      "stateMutability": "nonpayable",
      "type": "function"
    },
    {
      "inputs": [
        {
          "internalType": "address",
          "name": "operator",
          "type": "address"
        },
        {
          "internalType": "bool",
          "name": "approved",
          "type": "bool"
        }
      ],
      "name": "setApprovalForAll",
      "outputs": [],
      "stateMutability": "nonpayable",
      "type": "function"
    },
    {
      "inputs": [
        {
          "internalType": "bytes4",
          "name": "interfaceId",
          "type": "bytes4"
        }
      ],
      "name": "supportsInterface",
      "outputs": [
        {
          "internalType": "bool",
          "name": "",
          "type": "bool"
        }
      ],
      "stateMutability": "view",
      "type": "function"
    },
    {
      "inputs": [],
      "name": "symbol",
      "outputs": [
        {
          "internalType": "string",
          "name": "",
          "type": "string"
        }
      ],
      "stateMutability": "view",
      "type": "function"
    },
    {
      "inputs": [
        {
          "internalType": "uint256",
          "name": "tokenId",
          "type": "uint256"
        }
      ],
      "name": "tokenURI",
      "outputs": [
        {
          "internalType": "string",
          "name": "",
          "type": "string"
        }
      ],
      "stateMutability": "view",
      "type": "function"
    },
    {
      "inputs": [
        {
          "internalType": "address",
          "name": "from",
          "type": "address"
        },
        {
          "internalType": "address",
          "name": "to",
          "type": "address"
        },
        {
          "internalType": "uint256",
          "name": "tokenId",
          "type": "uint256"
        }
      ],
      "name": "transferFrom",
      "outputs": [],
      "stateMutability": "nonpayable",
      "type": "function"
    }
  ],
  "bytecode": "0x608060405234801561000f575f5ffd5b506040516131bd3803806131bd83398181016040528101906100319190610162565b6040518060400160405280600d81526020017f41726361646558204261646765000000000000000000000000000000000000008152506040518060400160405280600781526020017f4158424144474500000000000000000000000000000000000000000000000000815250815f90816100ab91906103ca565b5080600190816100bb91906103ca565b5050508060065f6101000a81548173ffffffffffffffffffffffffffffffffffffffff021916908373ffffffffffffffffffffffffffffffffffffffff16021790555050610499565b5f5ffd5b5f73ffffffffffffffffffffffffffffffffffffffff82169050919050565b5f61013182610108565b9050919050565b61014181610127565b811461014b575f5ffd5b50565b5f8151905061015c81610138565b92915050565b5f6020828403121561017757610176610104565b5b5f6101848482850161014e565b91505092915050565b5f81519050919050565b7f4e487b71000000000000000000000000000000000000000000000000000000005f52604160045260245ffd5b7f4e487b71000000000000000000000000000000000000000000000000000000005f52602260045260245ffd5b5f600282049050600182168061020857607f821691505b60208210810361021b5761021a6101c4565b5b50919050565b5f819050815f5260205f209050919050565b5f6020601f8301049050919050565b5f82821b905092915050565b5f6008830261027d7fffffffffffffffffffffffffffffffffffffffffffffffffffffffffffffffff82610242565b6102878683610242565b95508019841693508086168417925050509392505050565b5f819050919050565b5f819050919050565b5f6102cb6102c66102c18461029f565b6102a8565b61029f565b9050919050565b5f819050919050565b6102e4836102b1565b6102f86102f0826102d2565b84845461024e565b825550505050565b5f5f905090565b61030f610300565b61031a8184846102db565b505050565b5b8181101561033d576103325f82610307565b600181019050610320565b5050565b601f8211156103825761035381610221565b61035c84610233565b8101602085101561036b578190505b61037f61037785610233565b83018261031f565b50505b505050565b5f82821c905092915050565b5f6103a25f1984600802610387565b1980831691505092915050565b5f6103ba8383610393565b9150826002028217905092915050565b6103d38261018d565b67ffffffffffffffff8111156103ec576103eb610197565b5b6103f682546101f1565b610401828285610341565b5f60209050601f831160018114610432575f8415610420578287015190505b61042a85826103af565b865550610491565b601f19841661044086610221565b5f5b8281101561046757848901518255600182019150602085019450602081019050610442565b868310156104845784890151610480601f891682610393565b8355505b6001600288020188555050505b505050505050565b612d17806104a65f395ff3fe608060405234801561000f575f5ffd5b50600436106100fe575f3560e01c80637b79102011610095578063abc8c7af11610064578063abc8c7af146102be578063b88d4fde146102dc578063c87b56dd146102f8578063e985e9c514610328576100fe565b80637b7910201461023457806395d89b411461025057806398e36d8b1461026e578063a22cb465146102a2576100fe565b806323b872dd116100d157806323b872dd1461019c57806342842e0e146101b85780636352211e146101d457806370a0823114610204576100fe565b806301ffc9a71461010257806306fdde0314610132578063081812fc14610150578063095ea7b314610180575b5f5ffd5b61011c60048036038101906101179190611d26565b610358565b6040516101299190611d6b565b60405180910390f35b61013a610439565b6040516101479190611df4565b60405180910390f35b61016a60048036038101906101659190611e47565b6104c8565b6040516101779190611eb1565b60405180910390f35b61019a60048036038101906101959190611ef4565b6104e3565b005b6101b660048036038101906101b19190611f32565b6104f9565b005b6101d260048036038101906101cd9190611f32565b6105f8565b005b6101ee60048036038101906101e99190611e47565b610617565b6040516101fb9190611eb1565b60405180910390f35b61021e60048036038101906102199190611f82565b610628565b60405161022b9190611fbc565b60405180910390f35b61024e60048036038101906102499190612101565b6106de565b005b61025861086d565b6040516102659190611df4565b60405180910390f35b61028860048036038101906102839190611e47565b6108fd565b60405161029995949392919061219d565b60405180910390f35b6102bc60048036038101906102b79190612226565b610a5a565b005b6102c6610a70565b6040516102d39190611eb1565b60405180910390f35b6102f660048036038101906102f19190612302565b610a95565b005b610312600480360381019061030d9190611e47565b610aba565b60405161031f9190611df4565b60405180910390f35b610342600480360381019061033d9190612382565b610d3b565b60405161034f9190611d6b565b60405180910390f35b5f7f80ac58cd000000000000000000000000000000000000000000000000000000007bffffffffffffffffffffffffffffffffffffffffffffffffffffffff1916827bffffffffffffffffffffffffffffffffffffffffffffffffffffffff1916148061042257507f5b5e139f000000000000000000000000000000000000000000000000000000007bffffffffffffffffffffffffffffffffffffffffffffffffffffffff1916827bffffffffffffffffffffffffffffffffffffffffffffffffffffffff1916145b80610432575061043182610dc9565b5b9050919050565b60605f8054610447906123ed565b80601f0160208091040260200160405190810160405280929190818152602001828054610473906123ed565b80156104be5780601f10610495576101008083540402835291602001916104be565b820191905f5260205f20905b8154815290600101906020018083116104a157829003601f168201915b5050505050905090565b5f6104d282610e32565b506104dc82610eb8565b9050919050565b6104f582826104f0610ef1565b610ef8565b5050565b5f73ffffffffffffffffffffffffffffffffffffffff168273ffffffffffffffffffffffffffffffffffffffff1603610569575f6040517f64a0ae920000000000000000000000000000000000000000000000000000000081526004016105609190611eb1565b60405180910390fd5b5f61057c8383610577610ef1565b610f0a565b90508373ffffffffffffffffffffffffffffffffffffffff168173ffffffffffffffffffffffffffffffffffffffff16146105f2578382826040517f64283d7b0000000000000000000000000000000000000000000000000000000081526004016105e99392919061241d565b60405180910390fd5b50505050565b61061283838360405180602001604052805f815250610a95565b505050565b5f61062182610e32565b9050919050565b5f5f73ffffffffffffffffffffffffffffffffffffffff168273ffffffffffffffffffffffffffffffffffffffff1603610699575f6040517f89c62b640000000000000000000000000000000000000000000000000000000081526004016106909190611eb1565b60405180910390fd5b60035f8373ffffffffffffffffffffffffffffffffffffffff1673ffffffffffffffffffffffffffffffffffffffff1681526020019081526020015f20549050919050565b60065f9054906101000a900473ffffffffffffffffffffffffffffffffffffffff1673ffffffffffffffffffffffffffffffffffffffff163373ffffffffffffffffffffffffffffffffffffffff161461076d576040517f08c379a00000000000000000000000000000000000000000000000000000000081526004016107649061249c565b60405180910390fd5b60075f81548092919061077f906124e7565b91905055506040518060a001604052808481526020018381526020018281526020018573ffffffffffffffffffffffffffffffffffffffff1681526020014281525060085f60075481526020019081526020015f205f820151815f015560208201518160010190816107f191906126ce565b50604082015181600201908161080791906126ce565b506060820151816003015f6101000a81548173ffffffffffffffffffffffffffffffffffffffff021916908373ffffffffffffffffffffffffffffffffffffffff1602179055506080820151816004015590505061086784600754611115565b50505050565b60606001805461087c906123ed565b80601f01602080910402602001604051908101604052809291908181526020018280546108a8906123ed565b80156108f35780601f106108ca576101008083540402835291602001916108f3565b820191905f5260205f20905b8154815290600101906020018083116108d657829003601f168201915b5050505050905090565b6008602052805f5260405f205f91509050805f015490806001018054610922906123ed565b80601f016020809104026020016040519081016040528092919081815260200182805461094e906123ed565b80156109995780601f1061097057610100808354040283529160200191610999565b820191905f5260205f20905b81548152906001019060200180831161097c57829003601f168201915b5050505050908060020180546109ae906123ed565b80601f01602080910402602001604051908101604052809291908181526020018280546109da906123ed565b8015610a255780601f106109fc57610100808354040283529160200191610a25565b820191905f5260205f20905b815481529060010190602001808311610a0857829003601f168201915b505050505090806003015f9054906101000a900473ffffffffffffffffffffffffffffffffffffffff16908060040154905085565b610a6c610a65610ef1565b8383611208565b5050565b60065f9054906101000a900473ffffffffffffffffffffffffffffffffffffffff1681565b610aa08484846104f9565b610ab4610aab610ef1565b858585856113e1565b50505050565b60605f73ffffffffffffffffffffffffffffffffffffffff16610adc8361158d565b73ffffffffffffffffffffffffffffffffffffffff1603610b32576040517f08c379a0000000000000000000000000000000000000000000000000000000008152600401610b29906127e7565b60405180910390fd5b5f60085f8481526020019081526020015f206040518060a00160405290815f8201548152602001600182018054610b68906123ed565b80601f0160208091040260200160405190810160405280929190818152602001828054610b94906123ed565b8015610bdf5780601f10610bb657610100808354040283529160200191610bdf565b820191905f5260205f20905b815481529060010190602001808311610bc257829003601f168201915b50505050508152602001600282018054610bf8906123ed565b80601f0160208091040260200160405190810160405280929190818152602001828054610c24906123ed565b8015610c6f5780601f10610c4657610100808354040283529160200191610c6f565b820191905f5260205f20905b815481529060010190602001808311610c5257829003601f168201915b50505050508152602001600382015f9054906101000a900473ffffffffffffffffffffffffffffffffffffffff1673ffffffffffffffffffffffffffffffffffffffff1673ffffffffffffffffffffffffffffffffffffffff16815260200160048201548152505090505f610d108260200151610ceb866115c6565b604051602001610cfc929190612a49565b604051602081830303815290604052611690565b905080604051602001610d239190612aed565b60405160208183030381529060405292505050919050565b5f60055f8473ffffffffffffffffffffffffffffffffffffffff1673ffffffffffffffffffffffffffffffffffffffff1681526020019081526020015f205f8373ffffffffffffffffffffffffffffffffffffffff1673ffffffffffffffffffffffffffffffffffffffff1681526020019081526020015f205f9054906101000a900460ff16905092915050565b5f7f01ffc9a7000000000000000000000000000000000000000000000000000000007bffffffffffffffffffffffffffffffffffffffffffffffffffffffff1916827bffffffffffffffffffffffffffffffffffffffffffffffffffffffff1916149050919050565b5f5f610e3d8361158d565b90505f73ffffffffffffffffffffffffffffffffffffffff168173ffffffffffffffffffffffffffffffffffffffff1603610eaf57826040517f7e273289000000000000000000000000000000000000000000000000000000008152600401610ea69190611fbc565b60405180910390fd5b80915050919050565b5f60045f8381526020019081526020015f205f9054906101000a900473ffffffffffffffffffffffffffffffffffffffff169050919050565b5f33905090565b610f0583838360016116a3565b505050565b5f5f610f158461158d565b90505f73ffffffffffffffffffffffffffffffffffffffff168373ffffffffffffffffffffffffffffffffffffffff1614610f5657610f55818486611862565b5b5f73ffffffffffffffffffffffffffffffffffffffff168173ffffffffffffffffffffffffffffffffffffffff1614610fe157610f955f855f5f6116a3565b600160035f8373ffffffffffffffffffffffffffffffffffffffff1673ffffffffffffffffffffffffffffffffffffffff1681526020019081526020015f205f82825403925050819055505b5f73ffffffffffffffffffffffffffffffffffffffff168573ffffffffffffffffffffffffffffffffffffffff161461106057600160035f8773ffffffffffffffffffffffffffffffffffffffff1673ffffffffffffffffffffffffffffffffffffffff1681526020019081526020015f205f82825401925050819055505b8460025f8681526020019081526020015f205f6101000a81548173ffffffffffffffffffffffffffffffffffffffff021916908373ffffffffffffffffffffffffffffffffffffffff160217905550838573ffffffffffffffffffffffffffffffffffffffff168273ffffffffffffffffffffffffffffffffffffffff167fddf252ad1be2c89b69c2b068fc378daa952ba7f163c4a11628f55a4df523b3ef60405160405180910390a4809150509392505050565b5f73ffffffffffffffffffffffffffffffffffffffff168273ffffffffffffffffffffffffffffffffffffffff1603611185575f6040517f64a0ae9200000000000000000000000000000000000000000000000000000000815260040161117c9190611eb1565b60405180910390fd5b5f61119183835f610f0a565b90505f73ffffffffffffffffffffffffffffffffffffffff168173ffffffffffffffffffffffffffffffffffffffff1614611203575f6040517f73c6ac6e0000000000000000000000000000000000000000000000000000000081526004016111fa9190611eb1565b60405180910390fd5b505050565b5f73ffffffffffffffffffffffffffffffffffffffff168373ffffffffffffffffffffffffffffffffffffffff1603611278575f6040517fa9fbf51f00000000000000000000000000000000000000000000000000000000815260040161126f9190611eb1565b60405180910390fd5b5f73ffffffffffffffffffffffffffffffffffffffff168273ffffffffffffffffffffffffffffffffffffffff16036112e857816040517f5b08ba180000000000000000000000000000000000000000000000000000000081526004016112df9190611eb1565b60405180910390fd5b8060055f8573ffffffffffffffffffffffffffffffffffffffff1673ffffffffffffffffffffffffffffffffffffffff1681526020019081526020015f205f8473ffffffffffffffffffffffffffffffffffffffff1673ffffffffffffffffffffffffffffffffffffffff1681526020019081526020015f205f6101000a81548160ff0219169083151502179055508173ffffffffffffffffffffffffffffffffffffffff168373ffffffffffffffffffffffffffffffffffffffff167f17307eab39ab6107e8899845ad3d59bd9653f200f220920489ca2b5937696c31836040516113d49190611d6b565b60405180910390a3505050565b5f8373ffffffffffffffffffffffffffffffffffffffff163b1115611586578273ffffffffffffffffffffffffffffffffffffffff1663150b7a02868685856040518563ffffffff1660e01b815260040161143f9493929190612b60565b6020604051808303815f875af192505050801561147a57506040513d601f19601f820116820180604052508101906114779190612bbe565b60015b6114fb573d805f81146114a8576040519150601f19603f3d011682016040523d82523d5f602084013e6114ad565b606091505b505f8151036114f357836040517f64a0ae920000000000000000000000000000000000000000000000000000000081526004016114ea9190611eb1565b60405180910390fd5b805160208201fd5b63150b7a0260e01b7bffffffffffffffffffffffffffffffffffffffffffffffffffffffff1916817bffffffffffffffffffffffffffffffffffffffffffffffffffffffff19161461158457836040517f64a0ae9200000000000000000000000000000000000000000000000000000000815260040161157b9190611eb1565b60405180910390fd5b505b5050505050565b5f60025f8381526020019081526020015f205f9054906101000a900473ffffffffffffffffffffffffffffffffffffffff169050919050565b60605f60016115d484611925565b0190505f8167ffffffffffffffff8111156115f2576115f1611fdd565b5b6040519080825280601f01601f1916602001820160405280156116245781602001600182028036833780820191505090505b5090505f82602083010190505b600115611685578080600190039150507f3031323334353637383961626364656600000000000000000000000000000000600a86061a8153600a858161167a57611679612be9565b5b0494505f8503611631575b819350505050919050565b606061169c825f611a76565b9050919050565b80806116db57505f73ffffffffffffffffffffffffffffffffffffffff168273ffffffffffffffffffffffffffffffffffffffff1614155b1561180d575f6116ea84610e32565b90505f73ffffffffffffffffffffffffffffffffffffffff168373ffffffffffffffffffffffffffffffffffffffff161415801561175457508273ffffffffffffffffffffffffffffffffffffffff168173ffffffffffffffffffffffffffffffffffffffff1614155b801561176757506117658184610d3b565b155b156117a957826040517fa9fbf51f0000000000000000000000000000000000000000000000000000000081526004016117a09190611eb1565b60405180910390fd5b811561180b57838573ffffffffffffffffffffffffffffffffffffffff168273ffffffffffffffffffffffffffffffffffffffff167f8c5be1e5ebec7d5bd14f71427d1e84f3dd0314c0f7b2291e5b200ac8c7c3b92560405160405180910390a45b505b8360045f8581526020019081526020015f205f6101000a81548173ffffffffffffffffffffffffffffffffffffffff021916908373ffffffffffffffffffffffffffffffffffffffff16021790555050505050565b61186d838383611c00565b611920575f73ffffffffffffffffffffffffffffffffffffffff168373ffffffffffffffffffffffffffffffffffffffff16036118e157806040517f7e2732890000000000000000000000000000000000000000000000000000000081526004016118d89190611fbc565b60405180910390fd5b81816040517f177e802f000000000000000000000000000000000000000000000000000000008152600401611917929190612c16565b60405180910390fd5b505050565b5f5f5f90507a184f03e93ff9f4daa797ed6e38ed64bf6a1f0100000000000000008310611981577a184f03e93ff9f4daa797ed6e38ed64bf6a1f010000000000000000838161197757611976612be9565b5b0492506040810190505b6d04ee2d6d415b85acef810000000083106119be576d04ee2d6d415b85acef810000000083816119b4576119b3612be9565b5b0492506020810190505b662386f26fc1000083106119ed57662386f26fc1000083816119e3576119e2612be9565b5b0492506010810190505b6305f5e1008310611a16576305f5e1008381611a0c57611a0b612be9565b5b0492506008810190505b6127108310611a3b576127108381611a3157611a30612be9565b5b0492506004810190505b60648310611a5e5760648381611a5457611a53612be9565b5b0492506002810190505b600a8310611a6d576001810190505b80915050919050565b60605f835103611a965760405180602001604052805f8152509050611bfa565b5f82611ac757600360028551611aac9190612c3d565b611ab69190612c70565b6004611ac29190612ca0565b611aee565b6003600285516004611ad99190612ca0565b611ae39190612c3d565b611aed9190612c70565b5b905060405191507f4142434445464748494a4b4c4d4e4f505152535455565758595a616263646566601f5261067083027f6768696a6b6c6d6e6f707172737475767778797a303132333435363738392b2f18603f526020820181810185865187016020810180515f82525b82841015611bac576003840193508351603f8160121c16518753600187019650603f81600c1c16518753600187019650603f8160061c16518753600187019650603f811651875360018701965050611b59565b80825288611beb5760038a510660018114611bce5760028114611be157611be9565b603d6001880353603d6002880353611be9565b603d60018803535b505b86885284604052505050505050505b92915050565b5f5f73ffffffffffffffffffffffffffffffffffffffff168373ffffffffffffffffffffffffffffffffffffffff1614158015611cb757508273ffffffffffffffffffffffffffffffffffffffff168473ffffffffffffffffffffffffffffffffffffffff161480611c785750611c778484610d3b565b5b80611cb657508273ffffffffffffffffffffffffffffffffffffffff16611c9e83610eb8565b73ffffffffffffffffffffffffffffffffffffffff16145b5b90509392505050565b5f604051905090565b5f5ffd5b5f5ffd5b5f7fffffffff0000000000000000000000000000000000000000000000000000000082169050919050565b611d0581611cd1565b8114611d0f575f5ffd5b50565b5f81359050611d2081611cfc565b92915050565b5f60208284031215611d3b57611d3a611cc9565b5b5f611d4884828501611d12565b91505092915050565b5f8115159050919050565b611d6581611d51565b82525050565b5f602082019050611d7e5f830184611d5c565b92915050565b5f81519050919050565b5f82825260208201905092915050565b8281835e5f83830152505050565b5f601f19601f8301169050919050565b5f611dc682611d84565b611dd08185611d8e565b9350611de0818560208601611d9e565b611de981611dac565b840191505092915050565b5f6020820190508181035f830152611e0c8184611dbc565b905092915050565b5f819050919050565b611e2681611e14565b8114611e30575f5ffd5b50565b5f81359050611e4181611e1d565b92915050565b5f60208284031215611e5c57611e5b611cc9565b5b5f611e6984828501611e33565b91505092915050565b5f73ffffffffffffffffffffffffffffffffffffffff82169050919050565b5f611e9b82611e72565b9050919050565b611eab81611e91565b82525050565b5f602082019050611ec45f830184611ea2565b92915050565b611ed381611e91565b8114611edd575f5ffd5b50565b5f81359050611eee81611eca565b92915050565b5f5f60408385031215611f0a57611f09611cc9565b5b5f611f1785828601611ee0565b9250506020611f2885828601611e33565b9150509250929050565b5f5f5f60608486031215611f4957611f48611cc9565b5b5f611f5686828701611ee0565b9350506020611f6786828701611ee0565b9250506040611f7886828701611e33565b9150509250925092565b5f60208284031215611f9757611f96611cc9565b5b5f611fa484828501611ee0565b91505092915050565b611fb681611e14565b82525050565b5f602082019050611fcf5f830184611fad565b92915050565b5f5ffd5b5f5ffd5b7f4e487b71000000000000000000000000000000000000000000000000000000005f52604160045260245ffd5b61201382611dac565b810181811067ffffffffffffffff8211171561203257612031611fdd565b5b80604052505050565b5f612044611cc0565b9050612050828261200a565b919050565b5f67ffffffffffffffff82111561206f5761206e611fdd565b5b61207882611dac565b9050602081019050919050565b828183375f83830152505050565b5f6120a56120a084612055565b61203b565b9050828152602081018484840111156120c1576120c0611fd9565b5b6120cc848285612085565b509392505050565b5f82601f8301126120e8576120e7611fd5565b5b81356120f8848260208601612093565b91505092915050565b5f5f5f5f6080858703121561211957612118611cc9565b5b5f61212687828801611ee0565b945050602061213787828801611e33565b935050604085013567ffffffffffffffff81111561215857612157611ccd565b5b612164878288016120d4565b925050606085013567ffffffffffffffff81111561218557612184611ccd565b5b612191878288016120d4565b91505092959194509250565b5f60a0820190506121b05f830188611fad565b81810360208301526121c28187611dbc565b905081810360408301526121d68186611dbc565b90506121e56060830185611ea2565b6121f26080830184611fad565b9695505050505050565b61220581611d51565b811461220f575f5ffd5b50565b5f81359050612220816121fc565b92915050565b5f5f6040838503121561223c5761223b611cc9565b5b5f61224985828601611ee0565b925050602061225a85828601612212565b9150509250929050565b5f67ffffffffffffffff82111561227e5761227d611fdd565b5b61228782611dac565b9050602081019050919050565b5f6122a66122a184612264565b61203b565b9050828152602081018484840111156122c2576122c1611fd9565b5b6122cd848285612085565b509392505050565b5f82601f8301126122e9576122e8611fd5565b5b81356122f9848260208601612294565b91505092915050565b5f5f5f5f6080858703121561231a57612319611cc9565b5b5f61232787828801611ee0565b945050602061233887828801611ee0565b935050604061234987828801611e33565b925050606085013567ffffffffffffffff81111561236a57612369611ccd565b5b612376878288016122d5565b91505092959194509250565b5f5f6040838503121561239857612397611cc9565b5b5f6123a585828601611ee0565b92505060206123b685828601611ee0565b9150509250929050565b7f4e487b71000000000000000000000000000000000000000000000000000000005f52602260045260245ffd5b5f600282049050600182168061240457607f821691505b602082108103612417576124166123c0565b5b50919050565b5f6060820190506124305f830186611ea2565b61243d6020830185611fad565b61244a6040830184611ea2565b949350505050565b7f4f6e6c79206d61726b6574706c616365000000000000000000000000000000005f82015250565b5f612486601083611d8e565b915061249182612452565b602082019050919050565b5f6020820190508181035f8301526124b38161247a565b9050919050565b7f4e487b71000000000000000000000000000000000000000000000000000000005f52601160045260245ffd5b5f6124f182611e14565b91507fffffffffffffffffffffffffffffffffffffffffffffffffffffffffffffffff8203612523576125226124ba565b5b600182019050919050565b5f819050815f5260205f209050919050565b5f6020601f8301049050919050565b5f82821b905092915050565b5f6008830261258a7fffffffffffffffffffffffffffffffffffffffffffffffffffffffffffffffff8261254f565b612594868361254f565b95508019841693508086168417925050509392505050565b5f819050919050565b5f6125cf6125ca6125c584611e14565b6125ac565b611e14565b9050919050565b5f819050919050565b6125e8836125b5565b6125fc6125f4826125d6565b84845461255b565b825550505050565b5f5f905090565b612613612604565b61261e8184846125df565b505050565b5b81811015612641576126365f8261260b565b600181019050612624565b5050565b601f821115612686576126578161252e565b61266084612540565b8101602085101561266f578190505b61268361267b85612540565b830182612623565b50505b505050565b5f82821c905092915050565b5f6126a65f198460080261268b565b1980831691505092915050565b5f6126be8383612697565b9150826002028217905092915050565b6126d782611d84565b67ffffffffffffffff8111156126f0576126ef611fdd565b5b6126fa82546123ed565b612705828285612645565b5f60209050601f831160018114612736575f8415612724578287015190505b61272e85826126b3565b865550612795565b601f1984166127448661252e565b5f5b8281101561276b57848901518255600182019150602085019450602081019050612746565b868310156127885784890151612784601f891682612697565b8355505b6001600288020188555050505b505050505050565b7f546f6b656e20646f6573206e6f742065786973740000000000000000000000005f82015250565b5f6127d1601483611d8e565b91506127dc8261279d565b602082019050919050565b5f6020820190508181035f8301526127fe816127c5565b9050919050565b5f81905092915050565b7f7b226e616d65223a2200000000000000000000000000000000000000000000005f82015250565b5f612843600983612805565b915061284e8261280f565b600982019050919050565b5f61286382611d84565b61286d8185612805565b935061287d818560208601611d9e565b80840191505092915050565b7f20230000000000000000000000000000000000000000000000000000000000005f82015250565b5f6128bd600283612805565b91506128c882612889565b600282019050919050565b7f222c0000000000000000000000000000000000000000000000000000000000005f82015250565b5f612907600283612805565b9150612912826128d3565b600282019050919050565b7f226465736372697074696f6e223a2241726361646558204261646765202d20455f8201527f61726e6564206f6e20424f54436861696e222c00000000000000000000000000602082015250565b5f612977603383612805565b91506129828261291d565b603382019050919050565b7f2261747472696275746573223a5b7b2274726169745f74797065223a22506c615f8201527f74666f726d222c2276616c7565223a2241726361646558227d2c7b227472616960208201527f745f74797065223a22436861696e222c2276616c7565223a22424f544368616960408201527f6e227d5d7d000000000000000000000000000000000000000000000000000000606082015250565b5f612a33606583612805565b9150612a3e8261298d565b606582019050919050565b5f612a5382612837565b9150612a5f8285612859565b9150612a6a826128b1565b9150612a768284612859565b9150612a81826128fb565b9150612a8c8261296b565b9150612a9782612a27565b91508190509392505050565b7f646174613a6170706c69636174696f6e2f6a736f6e3b6261736536342c0000005f82015250565b5f612ad7601d83612805565b9150612ae282612aa3565b601d82019050919050565b5f612af782612acb565b9150612b038284612859565b915081905092915050565b5f81519050919050565b5f82825260208201905092915050565b5f612b3282612b0e565b612b3c8185612b18565b9350612b4c818560208601611d9e565b612b5581611dac565b840191505092915050565b5f608082019050612b735f830187611ea2565b612b806020830186611ea2565b612b8d6040830185611fad565b8181036060830152612b9f8184612b28565b905095945050505050565b5f81519050612bb881611cfc565b92915050565b5f60208284031215612bd357612bd2611cc9565b5b5f612be084828501612baa565b91505092915050565b7f4e487b71000000000000000000000000000000000000000000000000000000005f52601260045260245ffd5b5f604082019050612c295f830185611ea2565b612c366020830184611fad565b9392505050565b5f612c4782611e14565b9150612c5283611e14565b9250828201905080821115612c6a57612c696124ba565b5b92915050565b5f612c7a82611e14565b9150612c8583611e14565b925082612c9557612c94612be9565b5b828204905092915050565b5f612caa82611e14565b9150612cb583611e14565b9250828202612cc381611e14565b91508282048414831517612cda57612cd96124ba565b5b509291505056fea2646970667358221220cda1b3b40920fada9491bad51bfedc7ac863c8c144d0cbe931f163341a1304ff64736f6c634300081c0033",
  "linkReferences": {},
  "deployedLinkReferences": {}
}